{
  "contractName": "Reporter",
  "abi": [
    {
      "constant": false,
      "inputs": [],
      "name": "get_all_complaints",
      "outputs": [
        {
          "name": "",
          "type": "bytes32[]"
        },
        {
          "name": "",
          "type": "uint256[]"
        },
        {
          "name": "",
          "type": "uint256[]"
        },
        {
          "name": "",
          "type": "uint256[]"
        },
        {
          "name": "",
          "type": "uint256[]"
        },
        {
          "name": "",
          "type": "bytes32[]"
        }
      ],
      "payable": false,
      "stateMutability": "nonpayable",
      "type": "function"
    },
    {
      "constant": false,
      "inputs": [
        {
          "name": "id",
          "type": "uint256"
        }
      ],
      "name": "upvote",
      "outputs": [],
      "payable": true,
      "stateMutability": "payable",
      "type": "function"
    },
    {
      "constant": true,
      "inputs": [
        {
          "name": "",
          "type": "address"
        },
        {
          "name": "",
          "type": "uint256"
        }
      ],
      "name": "lodged_complaints",
      "outputs": [
        {
          "name": "",
          "type": "uint256"
        }
      ],
      "payable": false,
      "stateMutability": "view",
      "type": "function"
    },
    {
      "constant": false,
      "inputs": [
        {
          "name": "id",
          "type": "uint256"
        }
      ],
      "name": "get_upvotes_status",
      "outputs": [
        {
          "name": "",
          "type": "uint256[]"
        },
        {
          "name": "",
          "type": "uint256[]"
        }
      ],
      "payable": false,
      "stateMutability": "nonpayable",
      "type": "function"
    },
    {
      "constant": false,
      "inputs": [
        {
          "name": "_address",
          "type": "bytes"
        }
      ],
      "name": "bytesToAddress",
      "outputs": [
        {
          "name": "",
          "type": "address"
        }
      ],
      "payable": false,
      "stateMutability": "nonpayable",
      "type": "function"
    },
    {
      "constant": false,
      "inputs": [
        {
          "name": "type_of_complaint",
          "type": "uint256"
        },
        {
          "name": "visibility",
          "type": "uint256"
        },
        {
          "name": "complaint",
          "type": "bytes32"
        },
        {
          "name": "contact_info",
          "type": "uint256"
        },
        {
          "name": "crime_time",
          "type": "bytes32"
        },
        {
          "name": "location",
          "type": "bytes32"
        }
      ],
      "name": "register_complaint",
      "outputs": [],
      "payable": true,
      "stateMutability": "payable",
      "type": "function"
    },
    {
      "constant": true,
      "inputs": [
        {
          "name": "",
          "type": "address"
        },
        {
          "name": "",
          "type": "uint256"
        }
      ],
      "name": "process_complaints",
      "outputs": [
        {
          "name": "",
          "type": "uint256"
        }
      ],
      "payable": false,
      "stateMutability": "view",
      "type": "function"
    },
    {
      "constant": false,
      "inputs": [
        {
          "name": "id",
          "type": "uint256"
        }
      ],
      "name": "close_complaint",
      "outputs": [],
      "payable": false,
      "stateMutability": "nonpayable",
      "type": "function"
    },
    {
      "constant": true,
      "inputs": [
        {
          "name": "",
          "type": "address"
        },
        {
          "name": "",
          "type": "uint256"
        }
      ],
      "name": "solved_complaints",
      "outputs": [
        {
          "name": "",
          "type": "uint256"
        }
      ],
      "payable": false,
      "stateMutability": "view",
      "type": "function"
    },
    {
      "constant": false,
      "inputs": [
        {
          "name": "id",
          "type": "uint256"
        }
      ],
      "name": "accept_complaint",
      "outputs": [],
      "payable": false,
      "stateMutability": "nonpayable",
      "type": "function"
    }
  ],
  "bytecode": "0x6060604052341561000f57600080fd5b6110708061001e6000396000f3006060604052600436106100a3576000357c0100000000000000000000000000000000000000000000000000000000900463ffffffff16806272e94e146100a857806301ddf070146100d65780630205dd12146100ee578063242b43811461014457806342526e4e1461017c5780635e42080e146101ed578063734074531461023e5780638c14abf514610294578063a3b9931c146102b7578063def710741461030d575b600080fd5b34156100b357600080fd5b6100bb610330565b6040516100cd96959493929190610edb565b60405180910390f35b6100ec60048080359060200190919050506105b1565b005b34156100f957600080fd5b61012e600480803573ffffffffffffffffffffffffffffffffffffffff169060200190919080359060200190919050506105e2565b60405161013b9190610f9d565b60405180910390f35b341561014f57600080fd5b6101656004808035906020019091905050610613565b604051610173929190610f66565b60405180910390f35b341561018757600080fd5b6101d7600480803590602001908201803590602001908080601f01602080910402602001604051908101604052809392919081815260200183838082843782019150505050505091905050610711565b6040516101e49190610ec0565b60405180910390f35b61023c60048080359060200190919080359060200190919080356000191690602001909190803590602001909190803560001916906020019091908035600019169060200190919050506107d5565b005b341561024957600080fd5b61027e600480803573ffffffffffffffffffffffffffffffffffffffff16906020019091908035906020019091905050610a60565b60405161028b9190610f9d565b60405180910390f35b341561029f57600080fd5b6102b56004808035906020019091905050610a91565b005b34156102c257600080fd5b6102f7600480803573ffffffffffffffffffffffffffffffffffffffff16906020019091908035906020019091905050610aba565b6040516103049190610f9d565b60405180910390f35b341561031857600080fd5b61032e6004808035906020019091905050610aeb565b005b610338610b14565b610340610b28565b610348610b28565b610350610b28565b610358610b28565b610360610b14565b610368610b14565b610370610b28565b610378610b28565b610380610b28565b610388610b14565b610390610b28565b6000806004805490506040518059106103a65750595b908082528060200260200182016040525097506004805490506040518059106103cc5750595b908082528060200260200182016040525096506004805490506040518059106103f25750595b908082528060200260200182016040525095506004805490506040518059106104185750595b9080825280602002602001820160405250945060048054905060405180591061043e5750595b908082528060200260200182016040525093506004805490506040518059106104645750595b90808252806020026020018201604052509250600091505b60048054905082101561058f5760048281548110151561049857fe5b90600052602060002090600d02019050806002015488838151811015156104bb57fe5b906020019060200201906000191690816000191681525050806003015487838151811015156104e657fe5b90602001906020020181815250508060060154868381518110151561050757fe5b906020019060200201818152505080600a0154858381518110151561052857fe5b90602001906020020181815250508060050154838381518110151561054957fe5b906020019060200201818152505080600c0154848381518110151561056a57fe5b906020019060200201906000191690816000191681525050818060010192505061047c565b8787878786889d509d509d509d509d509d505050505050505050909192939495565b346004828154811015156105c157fe5b90600052602060002090600d02016006016000828254019250508190555050565b6002602052816000526040600020818154811015156105fd57fe5b9060005260206000209001600091509150505481565b61061b610b28565b610623610b28565b61062b610b28565b610633610b28565b6000806004805490506040518059106106495750595b9080825280602002602001820160405250935060048054905060405180591061066f5750595b90808252806020026020018201604052509250600091505b600480549050821015610702576004828154811015156106a357fe5b90600052602060002090600d02019050806006015484838151811015156106c657fe5b9060200190602002018181525050806005015483838151811015156106e757fe5b90602001906020020181815250508180600101925050610687565b83839550955050505050915091565b6000806000806000925060009150600090505b60148160ff1610156107ca5761010083029250848160ff1681518110151561074857fe5b9060200101517f010000000000000000000000000000000000000000000000000000000000000090047f0100000000000000000000000000000000000000000000000000000000000000027f01000000000000000000000000000000000000000000000000000000000000009004915081830192508080600101915050610724565b829350505050919050565b6107dd610b3c565b600060016004805490500190508082600001818152505033826020019073ffffffffffffffffffffffffffffffffffffffff16908173ffffffffffffffffffffffffffffffffffffffff16815250508582604001906000191690816000191681525050848260600181815250506020604051908101604052806000815250826080018190525060008260a001818152505060008260c001818152505060008260e00190600019169081600019168152505082826101000190600019169081600019168152505087826101600181815250508682610140018181525050838261018001906000191690816000191681525050600260003373ffffffffffffffffffffffffffffffffffffffff1673ffffffffffffffffffffffffffffffffffffffff168152602001908152602001600020805480600101828161091f9190610bd0565b916000526020600020900160008390919091505550600480548060010182816109489190610bfc565b91600052602060002090600d020160008490919091506000820151816000015560208201518160010160006101000a81548173ffffffffffffffffffffffffffffffffffffffff021916908373ffffffffffffffffffffffffffffffffffffffff160217905550604082015181600201906000191690556060820151816003015560808201518160040190805190602001906109e5929190610c2e565b5060a0820151816005015560c0820151816006015560e082015181600701906000191690556101008201518160080190600019169055610120820151816009019060001916905561014082015181600a015561016082015181600b015561018082015181600c01906000191690555050505050505050505050565b600360205281600052604060002081815481101515610a7b57fe5b9060005260206000209001600091509150505481565b6002600482815481101515610aa257fe5b90600052602060002090600d02016005018190555050565b600160205281600052604060002081815481101515610ad557fe5b9060005260206000209001600091509150505481565b6001600482815481101515610afc57fe5b90600052602060002090600d02016005018190555050565b602060405190810160405280600081525090565b602060405190810160405280600081525090565b6101a06040519081016040528060008152602001600073ffffffffffffffffffffffffffffffffffffffff1681526020016000801916815260200160008152602001610b86610cae565b815260200160008152602001600081526020016000801916815260200160008019168152602001600080191681526020016000815260200160008152602001600080191681525090565b815481835581811511610bf757818360005260206000209182019101610bf69190610cc2565b5b505050565b815481835581811511610c2957600d0281600d028360005260206000209182019101610c289190610ce7565b5b505050565b828054600181600116156101000203166002900490600052602060002090601f016020900481019282601f10610c6f57805160ff1916838001178555610c9d565b82800160010185558215610c9d579182015b82811115610c9c578251825591602001919060010190610c81565b5b509050610caa9190610cc2565b5090565b602060405190810160405280600081525090565b610ce491905b80821115610ce0576000816000905550600101610cc8565b5090565b90565b610d9291905b80821115610d8e576000808201600090556001820160006101000a81549073ffffffffffffffffffffffffffffffffffffffff021916905560028201600090556003820160009055600482016000610d459190610d95565b60058201600090556006820160009055600782016000905560088201600090556009820160009055600a820160009055600b820160009055600c82016000905550600d01610ced565b5090565b90565b50805460018160011615610100020316600290046000825580601f10610dbb5750610dda565b601f016020900490600052602060002090810190610dd99190610cc2565b5b50565b610de681611002565b82525050565b6000610df782610fd2565b808452602084019350610e0983610fb8565b60005b82811015610e3b57610e1f868351610ea2565b610e2882610fe8565b9150602086019550600181019050610e0c565b50849250505092915050565b6000610e5282610fdd565b808452602084019350610e6483610fc5565b60005b82811015610e9657610e7a868351610eb1565b610e8382610ff5565b9150602086019550600181019050610e67565b50849250505092915050565b610eab81611022565b82525050565b610eba8161102c565b82525050565b6000602082019050610ed56000830184610ddd565b92915050565b600060c0820190508181036000830152610ef58189610dec565b90508181036020830152610f098188610e47565b90508181036040830152610f1d8187610e47565b90508181036060830152610f318186610e47565b90508181036080830152610f458185610e47565b905081810360a0830152610f598184610dec565b9050979650505050505050565b60006040820190508181036000830152610f808185610e47565b90508181036020830152610f948184610e47565b90509392505050565b6000602082019050610fb26000830184610eb1565b92915050565b6000602082019050919050565b6000602082019050919050565b600081519050919050565b600081519050919050565b6000602082019050919050565b6000602082019050919050565b600073ffffffffffffffffffffffffffffffffffffffff82169050919050565b6000819050919050565b60008190509190505600a265627a7a723058202659f5145d6800dea4828365bb0f03f0757c33f67938ac03098d20dc5fec245c6c6578706572696d656e74616cf50037",
  "source": "pragma solidity ^0.4.18;\npragma experimental ABIEncoderV2;\n\ncontract Reporter {\n\n    struct Stake{\n        uint id;\n        uint value;\n        uint opinion; //1=>in support of , 0 => against\n    }\n\n\n    mapping(uint => Stake[]) complaint_stakes;\n    struct Complaint {\n        uint id;\n        address admin; //adhaar card of person registering complaint.\n        bytes32 complaint;\n        uint contact_info;\n        // string address_info;\n        string proposed_solution;\n        // bytes32 documents;\n        uint status;//0-> pending/open 1-> in process 2->closed/resolved\n        uint upvotes;\n        bytes32 solved_by; //adhaar_card of person who solved it\n        bytes32 location;//In the form of longitude latitude\n        bytes32 date_of_crime;\n        uint visibility;//0 -> closed 1-> open\n        uint type_of_complaint;// 0-> criminal cases eg(Theft) 1->civil cases( Consumer court )2->enforcement( debt issue )\n        bytes32 crime_time;\n    }\n    //Mapping of address to array of complaint id;\n    mapping(address => uint[]) public solved_complaints; //solved by me\n    //Mapping of adhaar card to array of lodged solved_complaints\n    //To retreive complaints a person has lodged\n    mapping(address => uint[]) public lodged_complaints; // lodged by me\n    mapping(address => uint[]) public process_complaints; //under me\n\n\n\n    //Police officials list\n    // address[] police_list;\n    // police_list[0] = '0x870d3e9c4e7edce6436bc5c3d4194967155616ae';\n    // police_list[1] = '0x08eebb4fd9b3436baf4cadb9105b73acc015ee65';\n\n    //All complaints\n    Complaint[] all_complaints;\n\n     function bytesToAddress(bytes _address) public returns (address) {\n    uint160 m = 0;\n    uint160 b = 0;\n\n    for (uint8 i = 0; i < 20; i++) {\n      m *= 256;\n      b = uint160(_address[i]);\n      m += (b);\n    }\n\n    return address(m);\n  }\n\n  //address addr = bytesToAddress(\"0x5794ff959eb9c6a2afe82f8ed30e0973b40c8842\");\n\n    //Getter for all_complaints\n    function get_all_complaints() public returns (bytes32[],uint[], uint[], uint[],uint[], bytes32[]){\n        bytes32[] memory title = new bytes32[](all_complaints.length);\n        uint[] memory contact_info = new uint[](all_complaints.length);\n        uint[] memory upvotes = new uint[](all_complaints.length);\n        uint[] memory visibility = new uint[](all_complaints.length);\n        bytes32[] memory crime_time = new bytes32[](all_complaints.length);\n        // address[] memory admin = new address[](all_complaints.length);\n        uint[] memory status = new uint[](all_complaints.length);\n        for(uint i=0;i<all_complaints.length;i++){\n            Complaint storage c = all_complaints[i];\n            //id[i] = c.id;\n            title[i] = c.complaint;\n            contact_info[i] = c.contact_info;\n            upvotes[i] = c.upvotes;\n            visibility[i] = c.visibility;\n            status[i] = c.status;\n         //   location[i] = c.location;\n            crime_time[i] = c.crime_time;\n        }\n\n        return(title, contact_info, upvotes, visibility, status, crime_time);\n    }\n    \n// uint id,string documents,uint type_of_complaint, uint visibility,  bytes32 admin, string title, string contact_info, string address_info, uint256 time, string location\n    function register_complaint(uint type_of_complaint, uint visibility, bytes32 complaint, uint contact_info, bytes32 crime_time, bytes32 location) public payable{\n        Complaint memory newcomplaint;\n        uint id = all_complaints.length+1;\n        newcomplaint.id = id;\n        newcomplaint.admin = msg.sender;\n        newcomplaint.complaint = bytes32(complaint);\n        newcomplaint.contact_info = contact_info;\n        newcomplaint.proposed_solution = '';\n        newcomplaint.status = 0;\n        newcomplaint.upvotes = 0;\n        newcomplaint.solved_by = '';\n        // newcomplaint.time = time;\n        newcomplaint.location = bytes32(location);\n        newcomplaint.type_of_complaint = type_of_complaint;\n        newcomplaint.visibility = visibility;\n        newcomplaint.crime_time = crime_time;\n\n        //Add this complaint to array of lodged complaints by the adhaar number\n        lodged_complaints[msg.sender].push(id);\n        //Add this complaint to array of all complaints\n        all_complaints.push(newcomplaint);\n\n    }\n\n    function get_upvotes_status(uint id) public returns(uint[], uint[]){\n        uint[] memory upvotes = new uint[](all_complaints.length);\n        uint[] memory status = new uint[](all_complaints.length);\n        for(uint i=0;i<all_complaints.length;i++){\n            Complaint storage c = all_complaints[i];\n            upvotes[i] = c.upvotes;\n            status[i] = c.status;\n        }       \n        return (upvotes, status);\n    }\n\n    // function accept_complaint(address police, uint id) public{\n    //     process_complaints[police].push(id);Complaint memory newcomplaint;\n    //     all_complaints[id].status = 1;//in process\n    // }\n\n    function upvote(uint id) public payable{\n        all_complaints[id].upvotes += msg.value;\n    }\n\n    function accept_complaint(uint id) public{\n        all_complaints[id].status = 1;//pending\n    }\n    function close_complaint(uint id) public{\n        all_complaints[id].status = 2;\n        \n    }\n\n    // function returnTotalStakes(uint id) public {\n    //     uint256 totalStakes = 0;\n    //     for(uint i = 0 ; i < complaint_stakes[id].length ; i++){\n    //         totalStakes += complaint_stakes[id][i].value;\n    //     } \n    //     return totalStakes;\n    // }\n\n    // function proposed_solution(bytes32 proposed_solution,uint id) public{\n    //     solved_by = bytes32(msg.sender);\n    //     all_complaints[id].proposed_solution = proposed_solution;\n    //     all_complaints[id].status = 1;\n    // }\n\n    // function closeComplain(address admin,uint id,uint status) public{\n    //     all_complaints[id].status = status;\n    // }\n\n\n\n\n}",
  "sourcePath": "/home/worm/Desktop/HINT/HINT_NEW/RepoEther/contracts/Reporter.sol",
  "compiler": {
    "name": "solc",
    "version": "0.4.18+commit.9cf6e910.Emscripten.clang"
  },
  "schemaVersion": "1.0.1",
  "updatedAt": "2018-03-18T05:53:18.176Z"
}