{
  "contractName": "Reporter",
  "abi": [
    {
      "constant": false,
      "inputs": [],
      "name": "get_all_complaints",
      "outputs": [
        {
          "name": "",
          "type": "uint256[]"
        },
        {
          "name": "",
          "type": "address[]"
        },
        {
          "name": "",
          "type": "bytes32[]"
        },
        {
          "name": "",
          "type": "bytes32[]"
        },
        {
          "name": "",
          "type": "uint256[]"
        },
        {
          "name": "",
          "type": "uint256[]"
        },
        {
          "name": "",
          "type": "bytes32[]"
        }
      ],
      "payable": false,
      "stateMutability": "nonpayable",
      "type": "function"
    },
    {
      "constant": true,
      "inputs": [
        {
          "name": "",
          "type": "address"
        },
        {
          "name": "",
          "type": "uint256"
        }
      ],
      "name": "lodged_complaints",
      "outputs": [
        {
          "name": "",
          "type": "uint256"
        }
      ],
      "payable": false,
      "stateMutability": "view",
      "type": "function"
    },
    {
      "constant": false,
      "inputs": [
        {
          "name": "type_of_complaint",
          "type": "uint256"
        },
        {
          "name": "visibility",
          "type": "uint256"
        },
        {
          "name": "admin",
          "type": "address"
        },
        {
          "name": "complaint",
          "type": "bytes32"
        },
        {
          "name": "contact_info",
          "type": "bytes32"
        },
        {
          "name": "crime_time",
          "type": "bytes32"
        },
        {
          "name": "location",
          "type": "bytes32"
        }
      ],
      "name": "register_complaint",
      "outputs": [],
      "payable": false,
      "stateMutability": "nonpayable",
      "type": "function"
    },
    {
      "constant": true,
      "inputs": [
        {
          "name": "",
          "type": "address"
        },
        {
          "name": "",
          "type": "uint256"
        }
      ],
      "name": "solved_complaints",
      "outputs": [
        {
          "name": "",
          "type": "uint256"
        }
      ],
      "payable": false,
      "stateMutability": "view",
      "type": "function"
    }
  ],
  "bytecode": "0x6060604052341561000f57600080fd5b610d768061001e6000396000f300606060405260043610610061576000357c0100000000000000000000000000000000000000000000000000000000900463ffffffff16806272e94e146100665780630205dd12146100955780636049b835146100eb578063a3b9931c1461016a575b600080fd5b341561007157600080fd5b6100796101c0565b60405161008c9796959493929190610bde565b60405180910390f35b34156100a057600080fd5b6100d5600480803573ffffffffffffffffffffffffffffffffffffffff16906020019091908035906020019091905050610486565b6040516100e29190610c7e565b60405180910390f35b34156100f657600080fd5b610168600480803590602001909190803590602001909190803573ffffffffffffffffffffffffffffffffffffffff16906020019091908035600019169060200190919080356000191690602001909190803560001916906020019091908035600019169060200190919050506104b7565b005b341561017557600080fd5b6101aa600480803573ffffffffffffffffffffffffffffffffffffffff16906020019091908035906020019091905050610772565b6040516101b79190610c7e565b60405180910390f35b6101c86107a3565b6101d06107b7565b6101d86107cb565b6101e06107cb565b6101e86107a3565b6101f06107a3565b6101f86107cb565b6102006107a3565b6102086107cb565b6102106107cb565b6102186107a3565b6102206107a3565b6102286107cb565b6102306107b7565b6000806002805490506040518059106102465750595b9080825280602002602001820160405250985060028054905060405180591061026c5750595b908082528060200260200182016040525097506002805490506040518059106102925750595b908082528060200260200182016040525096506002805490506040518059106102b85750595b908082528060200260200182016040525095506002805490506040518059106102de5750595b908082528060200260200182016040525094506002805490506040518059106103045750595b9080825280602002602001820160405250935060028054905060405180591061032a5750595b90808252806020026020018201604052509250600091505b60028054905082101561045f5760028281548110151561035e57fe5b90600052602060002090600e020190508060000154898381518110151561038157fe5b9060200190602002018181525050806002015488838151811015156103a257fe5b906020019060200201906000191690816000191681525050806003015487838151811015156103cd57fe5b90602001906020020190600019169081600019168152505080600c015486838151811015156103f857fe5b906020019060200201818152505080600b0154858381518110151561041957fe5b90602001906020020181815250508060090154848381518110151561043a57fe5b9060200190602002019060001916908160001916815250508180600101925050610342565b888389898989899f509f509f509f509f509f509f5050505050505050505090919293949596565b6001602052816000526040600020818154811015156104a157fe5b9060005260206000209001600091509150505481565b6104bf6107df565b600060016002805490500190508082600001818152505086826020019073ffffffffffffffffffffffffffffffffffffffff16908173ffffffffffffffffffffffffffffffffffffffff16815250508582604001906000191690816000191681525050848260600190600019169081600019168152505060206040519081016040528060008152508260a0018190525060008260c001818152505060008260e0018181525050600082610100019060001916908160001916815250508282610120019060001916908160001916815250508882610180018181525050878261016001818152505083826101a001906000191690816000191681525050600160008873ffffffffffffffffffffffffffffffffffffffff1673ffffffffffffffffffffffffffffffffffffffff168152602001908152602001600020805480600101828161060c9190610883565b9160005260206000209001600083909190915055506002805480600101828161063591906108af565b91600052602060002090600e020160008490919091506000820151816000015560208201518160010160006101000a81548173ffffffffffffffffffffffffffffffffffffffff021916908373ffffffffffffffffffffffffffffffffffffffff160217905550604082015181600201906000191690556060820151816003019060001916905560808201518160040190805190602001906106d89291906108e1565b5060a08201518160050190805190602001906106f59291906108e1565b5060c0820151816006015560e082015181600701556101008201518160080190600019169055610120820151816009019060001916905561014082015181600a019060001916905561016082015181600b015561018082015181600c01556101a082015181600d0190600019169055505050505050505050505050565b60006020528160005260406000208181548110151561078d57fe5b9060005260206000209001600091509150505481565b602060405190810160405280600081525090565b602060405190810160405280600081525090565b602060405190810160405280600081525090565b6101c06040519081016040528060008152602001600073ffffffffffffffffffffffffffffffffffffffff168152602001600080191681526020016000801916815260200161082c610961565b8152602001610839610961565b815260200160008152602001600081526020016000801916815260200160008019168152602001600080191681526020016000815260200160008152602001600080191681525090565b8154818355818115116108aa578183600052602060002091820191016108a99190610975565b5b505050565b8154818355818115116108dc57600e0281600e0283600052602060002091820191016108db919061099a565b5b505050565b828054600181600116156101000203166002900490600052602060002090601f016020900481019282601f1061092257805160ff1916838001178555610950565b82800160010185558215610950579182015b8281111561094f578251825591602001919060010190610934565b5b50905061095d9190610975565b5090565b602060405190810160405280600081525090565b61099791905b8082111561099357600081600090555060010161097b565b5090565b90565b610a5591905b80821115610a51576000808201600090556001820160006101000a81549073ffffffffffffffffffffffffffffffffffffffff0219169055600282016000905560038201600090556004820160006109f89190610a58565b600582016000610a089190610a58565b6006820160009055600782016000905560088201600090556009820160009055600a820160009055600b820160009055600c820160009055600d82016000905550600e016109a0565b5090565b90565b50805460018160011615610100020316600290046000825580601f10610a7e5750610a9d565b601f016020900490600052602060002090810190610a9c9190610975565b5b50565b610aa981610d08565b82525050565b6000610aba82610cc0565b808452602084019350610acc83610c99565b60005b82811015610afe57610ae2868351610aa0565b610aeb82610ce1565b9150602086019550600181019050610acf565b50849250505092915050565b6000610b1582610ccb565b808452602084019350610b2783610ca6565b60005b82811015610b5957610b3d868351610bc0565b610b4682610cee565b9150602086019550600181019050610b2a565b50849250505092915050565b6000610b7082610cd6565b808452602084019350610b8283610cb3565b60005b82811015610bb457610b98868351610bcf565b610ba182610cfb565b9150602086019550600181019050610b85565b50849250505092915050565b610bc981610d28565b82525050565b610bd881610d32565b82525050565b600060e0820190508181036000830152610bf8818a610b65565b90508181036020830152610c0c8189610aaf565b90508181036040830152610c208188610b0a565b90508181036060830152610c348187610b0a565b90508181036080830152610c488186610b65565b905081810360a0830152610c5c8185610b65565b905081810360c0830152610c708184610b0a565b905098975050505050505050565b6000602082019050610c936000830184610bcf565b92915050565b6000602082019050919050565b6000602082019050919050565b6000602082019050919050565b600081519050919050565b600081519050919050565b600081519050919050565b6000602082019050919050565b6000602082019050919050565b6000602082019050919050565b600073ffffffffffffffffffffffffffffffffffffffff82169050919050565b6000819050919050565b60008190509190505600a265627a7a72305820d401bc420272ac6932b753726f2ce47c208fb6d140ca7a24303d615079002ee46c6578706572696d656e74616cf50037",
  "source": "pragma solidity ^0.4.18;\npragma experimental ABIEncoderV2;\n\ncontract Reporter {\n\n    struct Complaint {\n        uint id;\n        address admin; //adhaar card of person registering complaint.\n        bytes32 complaint;\n        bytes32 contact_info;\n        string address_info;\n        string proposed_solution;\n        // bytes32 documents;\n        uint status;//0-> pending/open 1-> in process 2->closed/resolved\n        uint256 upvotes;\n        bytes32 solved_by; //adhaar_card of person who solved it\n        bytes32 location;//In the form of longitude latitude\n        bytes32 date_of_crime;\n        uint visibility;//0 -> closed 1-> open\n        uint type_of_complaint;// 0-> criminal cases eg(Theft) 1->civil cases( Consumer court )2->enforcement( debt issue )\n        bytes32 crime_time;\n    }\n    //Mapping of adhaar card to array of complaint id;\n    mapping(address => uint[]) public solved_complaints;\n\n    //Mapping of adhaar card to array of lodged solved_complaints\n    //To retreive complaints a person has lodged\n    mapping(address => uint[]) public lodged_complaints;\n\n    //All complaints\n    Complaint[] all_complaints;\n\n    //Getter for all_complaints\n    function get_all_complaints() public returns (uint[], address[], bytes32[],bytes32[], uint[], uint[], bytes32[]){\n        uint[] memory id = new uint[](all_complaints.length);\n        bytes32[] memory title = new bytes32[](all_complaints.length);\n        bytes32[] memory contact_info = new bytes32[](all_complaints.length);\n        uint[] memory type_of_complaint = new uint[](all_complaints.length);\n        uint[] memory visibility = new uint[](all_complaints.length);\n        bytes32[] memory location = new bytes32[](all_complaints.length);\n        // bytes32[] memory crime_time = new bytes32[](all_complaints.length);\n        address[] memory admin = new address[](all_complaints.length);\n        for(uint i=0;i<all_complaints.length;i++){\n            Complaint storage c = all_complaints[i];\n            id[i] = c.id;\n            title[i] = c.complaint;\n            contact_info[i] = c.contact_info;\n            type_of_complaint[i] = c.type_of_complaint;\n            visibility[i] = c.visibility;\n            location[i] = c.location;\n            // crime_time[i] = c.crime_time;\n        }\n\n        return(id, admin, title, contact_info, type_of_complaint, visibility, location);\n    }\n    \n// uint id,string documents,uint type_of_complaint, uint visibility,  bytes32 admin, string title, string contact_info, string address_info, uint256 time, string location\n    function register_complaint(uint type_of_complaint, uint visibility,  address admin, bytes32 complaint, bytes32 contact_info, bytes32 crime_time, bytes32 location) public{\n        Complaint memory newcomplaint;\n        uint id = all_complaints.length+1;\n        newcomplaint.id = id;\n        newcomplaint.admin = admin;\n        newcomplaint.complaint = bytes32(complaint);\n        newcomplaint.contact_info = contact_info;\n        newcomplaint.proposed_solution = '';\n        newcomplaint.status = 0;\n        newcomplaint.upvotes = 0;\n        newcomplaint.solved_by = '';\n        // newcomplaint.time = time;\n        newcomplaint.location = bytes32(location);\n        newcomplaint.type_of_complaint = type_of_complaint;\n        newcomplaint.visibility = visibility;\n        newcomplaint.crime_time = crime_time;\n\n        //Add this complaint to array of lodged complaints by the adhaar number\n        lodged_complaints[admin].push(id);\n        //Add this complaint to array of all complaints\n        all_complaints.push(newcomplaint);\n\n    }\n\n}",
  "sourcePath": "/home/worm/Desktop/HINT/RepoEther/contracts/Reporter.sol",
  "compiler": {
    "name": "solc",
    "version": "0.4.18+commit.9cf6e910.Emscripten.clang"
  },
  "schemaVersion": "1.0.1",
  "updatedAt": "2018-03-17T08:50:51.121Z"
}