{
  "contractName": "Reporter",
  "abi": [
    {
      "constant": true,
      "inputs": [
        {
          "name": "",
          "type": "address"
        },
        {
          "name": "",
          "type": "uint256"
        }
      ],
      "name": "lodged_complaints",
      "outputs": [
        {
          "name": "",
          "type": "uint256"
        }
      ],
      "payable": false,
      "stateMutability": "view",
      "type": "function"
    },
    {
      "constant": true,
      "inputs": [
        {
          "name": "",
          "type": "address"
        },
        {
          "name": "",
          "type": "uint256"
        }
      ],
      "name": "process_complaints",
      "outputs": [
        {
          "name": "",
          "type": "uint256"
        }
      ],
      "payable": false,
      "stateMutability": "view",
      "type": "function"
    },
    {
      "constant": true,
      "inputs": [
        {
          "name": "",
          "type": "address"
        },
        {
          "name": "",
          "type": "uint256"
        }
      ],
      "name": "solved_complaints",
      "outputs": [
        {
          "name": "",
          "type": "uint256"
        }
      ],
      "payable": false,
      "stateMutability": "view",
      "type": "function"
    },
    {
      "constant": false,
      "inputs": [
        {
          "name": "_address",
          "type": "bytes"
        }
      ],
      "name": "bytesToAddress",
      "outputs": [
        {
          "name": "",
          "type": "address"
        }
      ],
      "payable": false,
      "stateMutability": "nonpayable",
      "type": "function"
    },
    {
      "constant": false,
      "inputs": [],
      "name": "get_all_complaints",
      "outputs": [
        {
          "name": "",
          "type": "address[]"
        },
        {
          "name": "",
          "type": "bytes32[]"
        },
        {
          "name": "",
          "type": "uint256[]"
        },
        {
          "name": "",
          "type": "uint256[]"
        },
        {
          "name": "",
          "type": "uint256[]"
        },
        {
          "name": "",
          "type": "bytes32[]"
        }
      ],
      "payable": false,
      "stateMutability": "nonpayable",
      "type": "function"
    },
    {
      "constant": false,
      "inputs": [
        {
          "name": "type_of_complaint",
          "type": "uint256"
        },
        {
          "name": "visibility",
          "type": "uint256"
        },
        {
          "name": "complaint",
          "type": "bytes32"
        },
        {
          "name": "contact_info",
          "type": "uint256"
        },
        {
          "name": "crime_time",
          "type": "bytes32"
        },
        {
          "name": "location",
          "type": "bytes32"
        }
      ],
      "name": "register_complaint",
      "outputs": [],
      "payable": true,
      "stateMutability": "payable",
      "type": "function"
    }
  ],
  "bytecode": "0x6060604052341561000f57600080fd5b61100f8061001e6000396000f300606060405260043610610077576000357c0100000000000000000000000000000000000000000000000000000000900463ffffffff16806272e94e1461007c5780630205dd12146100aa57806342526e4e146100e05780635e42080e14610116578063734074531461012d578063a3b9931c14610163575b600080fd5b341561008757600080fd5b61008f610199565b6040516100a196959493929190610dde565b60405180910390f35b34156100b557600080fd5b6100ca60046100c5903690610b5b565b6103f9565b6040516100d79190610e69565b60405180910390f35b34156100eb57600080fd5b61010060046100fb903690610ba0565b61042a565b60405161010d9190610dc3565b60405180910390f35b61012b6004610126903690610bf3565b6104ee565b005b341561013857600080fd5b61014d6004610148903690610b5b565b610779565b60405161015a9190610e69565b60405180910390f35b341561016e57600080fd5b610183600461017e903690610b5b565b6107aa565b6040516101909190610e69565b60405180910390f35b6101a16107db565b6101a96107ef565b6101b1610803565b6101b9610803565b6101c1610803565b6101c96107ef565b6101d16107ef565b6101d9610803565b6101e1610803565b6101e9610803565b6101f16107ef565b6101f96107db565b60008060048054905060405180591061020f5750595b908082528060200260200182016040525097506004805490506040518059106102355750595b9080825280602002602001820160405250965060048054905060405180591061025b5750595b908082528060200260200182016040525095506004805490506040518059106102815750595b908082528060200260200182016040525094506004805490506040518059106102a75750595b908082528060200260200182016040525093506004805490506040518059106102cd5750595b90808252806020026020018201604052509250600091505b6004805490508210156103d75760048281548110151561030157fe5b90600052602060002090600d020190508060020154888381518110151561032457fe5b9060200190602002019060001916908160001916815250508060030154878381518110151561034f57fe5b906020019060200201818152505080600b0154868381518110151561037057fe5b906020019060200201818152505080600a0154858381518110151561039157fe5b906020019060200201818152505080600c015484838151811015156103b257fe5b90602001906020020190600019169081600019168152505081806001019250506102e5565b8288888888889d509d509d509d509d509d505050505050505050909192939495565b60026020528160005260406000208181548110151561041457fe5b9060005260206000209001600091509150505481565b6000806000806000925060009150600090505b60148160ff1610156104e35761010083029250848160ff1681518110151561046157fe5b9060200101517f010000000000000000000000000000000000000000000000000000000000000090047f0100000000000000000000000000000000000000000000000000000000000000027f0100000000000000000000000000000000000000000000000000000000000000900491508183019250808060010191505061043d565b829350505050919050565b6104f6610817565b600060016004805490500190508082600001818152505033826020019073ffffffffffffffffffffffffffffffffffffffff16908173ffffffffffffffffffffffffffffffffffffffff16815250508582604001906000191690816000191681525050848260600181815250506020604051908101604052806000815250826080018190525060008260a001818152505060008260c001818152505060008260e00190600019169081600019168152505082826101000190600019169081600019168152505087826101600181815250508682610140018181525050838261018001906000191690816000191681525050600260003373ffffffffffffffffffffffffffffffffffffffff1673ffffffffffffffffffffffffffffffffffffffff168152602001908152602001600020805480600101828161063891906108ab565b9160005260206000209001600083909190915055506004805480600101828161066191906108d7565b91600052602060002090600d020160008490919091506000820151816000015560208201518160010160006101000a81548173ffffffffffffffffffffffffffffffffffffffff021916908373ffffffffffffffffffffffffffffffffffffffff160217905550604082015181600201906000191690556060820151816003015560808201518160040190805190602001906106fe929190610909565b5060a0820151816005015560c0820151816006015560e082015181600701906000191690556101008201518160080190600019169055610120820151816009019060001916905561014082015181600a015561016082015181600b015561018082015181600c01906000191690555050505050505050505050565b60036020528160005260406000208181548110151561079457fe5b9060005260206000209001600091509150505481565b6001602052816000526040600020818154811015156107c557fe5b9060005260206000209001600091509150505481565b602060405190810160405280600081525090565b602060405190810160405280600081525090565b602060405190810160405280600081525090565b6101a06040519081016040528060008152602001600073ffffffffffffffffffffffffffffffffffffffff1681526020016000801916815260200160008152602001610861610989565b815260200160008152602001600081526020016000801916815260200160008019168152602001600080191681526020016000815260200160008152602001600080191681525090565b8154818355818115116108d2578183600052602060002091820191016108d1919061099d565b5b505050565b81548183558181151161090457600d0281600d02836000526020600020918201910161090391906109c2565b5b505050565b828054600181600116156101000203166002900490600052602060002090601f016020900481019282601f1061094a57805160ff1916838001178555610978565b82800160010185558215610978579182015b8281111561097757825182559160200191906001019061095c565b5b509050610985919061099d565b5090565b602060405190810160405280600081525090565b6109bf91905b808211156109bb5760008160009055506001016109a3565b5090565b90565b610a6d91905b80821115610a69576000808201600090556001820160006101000a81549073ffffffffffffffffffffffffffffffffffffffff021916905560028201600090556003820160009055600482016000610a209190610a70565b60058201600090556006820160009055600782016000905560088201600090556009820160009055600a820160009055600b820160009055600c82016000905550600d016109c8565b5090565b90565b50805460018160011615610100020316600290046000825580601f10610a965750610ab5565b601f016020900490600052602060002090810190610ab4919061099d565b5b50565b6000610ac48235610f92565b905092915050565b6000610ad88235610fb2565b905092915050565b600082601f83011260008114610af557610afa565b600080fd5b508135610b0e610b0982610eba565b610e84565b91508082526020830160208301858383011160018114610b2d57610b32565b600080fd5b50610b3e838284610fc6565b50505092915050565b6000610b538235610fbc565b905092915050565b60008060408385031260018114610b7157610b76565b600080fd5b506000610b8585828601610ab8565b9250506020610b9685828601610b47565b9150509250929050565b600060208284031260018114610bb557610bba565b600080fd5b50600082013567ffffffffffffffff811160018114610bd857610bdd565b600080fd5b50610bea84828501610ae0565b91505092915050565b60008060008060008060c08789031260018114610c0f57610c14565b600080fd5b506000610c2389828a01610b47565b9650506020610c3489828a01610b47565b9550506040610c4589828a01610acc565b9450506060610c5689828a01610b47565b9350506080610c6789828a01610acc565b92505060a0610c7889828a01610acc565b9150509295509295509295565b610c8e81610f5e565b82525050565b6000610c9f82610f16565b808452602084019350610cb183610eef565b60005b82811015610ce357610cc7868351610c85565b610cd082610f37565b9150602086019550600181019050610cb4565b50849250505092915050565b6000610cfa82610f21565b808452602084019350610d0c83610efc565b60005b82811015610d3e57610d22868351610da5565b610d2b82610f44565b9150602086019550600181019050610d0f565b50849250505092915050565b6000610d5582610f2c565b808452602084019350610d6783610f09565b60005b82811015610d9957610d7d868351610db4565b610d8682610f51565b9150602086019550600181019050610d6a565b50849250505092915050565b610dae81610f7e565b82525050565b610dbd81610f88565b82525050565b6000602082019050610dd86000830184610c85565b92915050565b600060c0820190508181036000830152610df88189610c94565b90508181036020830152610e0c8188610cef565b90508181036040830152610e208187610d4a565b90508181036060830152610e348186610d4a565b90508181036080830152610e488185610d4a565b905081810360a0830152610e5c8184610cef565b9050979650505050505050565b6000602082019050610e7e6000830184610db4565b92915050565b6000604051905081810181811067ffffffffffffffff82111760018114610eaa57610eaf565b600080fd5b508060405250919050565b600067ffffffffffffffff821160018114610ed457610ed9565b600080fd5b50601f19601f8301169050602081019050919050565b6000602082019050919050565b6000602082019050919050565b6000602082019050919050565b600081519050919050565b600081519050919050565b600081519050919050565b6000602082019050919050565b6000602082019050919050565b6000602082019050919050565b600073ffffffffffffffffffffffffffffffffffffffff82169050919050565b6000819050919050565b6000819050919050565b600073ffffffffffffffffffffffffffffffffffffffff82169050919050565b6000819050919050565b6000819050919050565b828183376000838301525050505600a265627a7a723058202d95b2411ed708c7793250ea02c0d16f0b25b8b1cbb813722a2fa26d152b189d6c6578706572696d656e74616cf50037",
  "source": "pragma solidity ^0.4.18;\npragma experimental ABIEncoderV2;\n\ncontract Reporter {\n\n    struct Stake{\n        uint id;\n        uint value;\n        uint opinion; //1=>in support of , 0 => against\n    }\n\n\n    mapping(uint => Stake[]) complaint_stakes;\n    struct Complaint {\n        uint id;\n        address admin; //adhaar card of person registering complaint.\n        bytes32 complaint;\n        uint contact_info;\n        // string address_info;\n        string proposed_solution;\n        // bytes32 documents;\n        uint status;//0-> pending/open 1-> in process 2->closed/resolved\n        uint256 upvotes;\n        bytes32 solved_by; //adhaar_card of person who solved it\n        bytes32 location;//In the form of longitude latitude\n        bytes32 date_of_crime;\n        uint visibility;//0 -> closed 1-> open\n        uint type_of_complaint;// 0-> criminal cases eg(Theft) 1->civil cases( Consumer court )2->enforcement( debt issue )\n        bytes32 crime_time;\n    }\n    //Mapping of address to array of complaint id;\n    mapping(address => uint[]) public solved_complaints; //solved by me\n    //Mapping of adhaar card to array of lodged solved_complaints\n    //To retreive complaints a person has lodged\n    mapping(address => uint[]) public lodged_complaints; // lodged by me\n    mapping(address => uint[]) public process_complaints; //under me\n\n\n\n    //Police officials list\n    // address[] police_list;\n    // police_list[0] = '0x870d3e9c4e7edce6436bc5c3d4194967155616ae';\n    // police_list[1] = '0x08eebb4fd9b3436baf4cadb9105b73acc015ee65';\n\n    //All complaints\n    Complaint[] all_complaints;\n\n     function bytesToAddress(bytes _address) public returns (address) {\n    uint160 m = 0;\n    uint160 b = 0;\n\n    for (uint8 i = 0; i < 20; i++) {\n      m *= 256;\n      b = uint160(_address[i]);\n      m += (b);\n    }\n\n    return address(m);\n  }\n\n  //address addr = bytesToAddress(\"0x5794ff959eb9c6a2afe82f8ed30e0973b40c8842\");\n\n    //Getter for all_complaints\n    function get_all_complaints() public returns (address[], bytes32[],uint[], uint[], uint[], bytes32[]){\n        bytes32[] memory title = new bytes32[](all_complaints.length);\n        uint[] memory contact_info = new uint[](all_complaints.length);\n        uint[] memory type_of_complaint = new uint[](all_complaints.length);\n        uint[] memory visibility = new uint[](all_complaints.length);\n        bytes32[] memory crime_time = new bytes32[](all_complaints.length);\n        address[] memory admin = new address[](all_complaints.length);\n        for(uint i=0;i<all_complaints.length;i++){\n            Complaint storage c = all_complaints[i];\n            //id[i] = c.id;\n            title[i] = c.complaint;\n            contact_info[i] = c.contact_info;\n            type_of_complaint[i] = c.type_of_complaint;\n            visibility[i] = c.visibility;\n         //   location[i] = c.location;\n            crime_time[i] = c.crime_time;\n        }\n\n        return(admin, title, contact_info, type_of_complaint, visibility, crime_time);\n    }\n    \n// uint id,string documents,uint type_of_complaint, uint visibility,  bytes32 admin, string title, string contact_info, string address_info, uint256 time, string location\n    function register_complaint(uint type_of_complaint, uint visibility, bytes32 complaint, uint contact_info, bytes32 crime_time, bytes32 location) public payable{\n        Complaint memory newcomplaint;\n        uint id = all_complaints.length+1;\n        newcomplaint.id = id;\n        newcomplaint.admin = msg.sender;\n        newcomplaint.complaint = bytes32(complaint);\n        newcomplaint.contact_info = contact_info;\n        newcomplaint.proposed_solution = '';\n        newcomplaint.status = 0;\n        newcomplaint.upvotes = 0;\n        newcomplaint.solved_by = '';\n        // newcomplaint.time = time;\n        newcomplaint.location = bytes32(location);\n        newcomplaint.type_of_complaint = type_of_complaint;\n        newcomplaint.visibility = visibility;\n        newcomplaint.crime_time = crime_time;\n\n        //Add this complaint to array of lodged complaints by the adhaar number\n        lodged_complaints[msg.sender].push(id);\n        //Add this complaint to array of all complaints\n        all_complaints.push(newcomplaint);\n\n    }\n\n    // function accept_complaint(address police, uint id) public{\n    //     process_complaints[police].push(id);Complaint memory newcomplaint;\n    //     all_complaints[id].status = 1;//in process\n    // }\n\n    // function raise_stakes(address addr, uint id, uint amt, uint opinion){\n    //     Stake memory newstake;\n    //     newstake.addr = addr;\n    //     newstake.stake = 0;\n    //     newstake.opinion = opinion;\n    //     complaint_stakes[id] = newstake;\n    // }\n\n    // function returnTotalStakes(uint id) public {\n    //     uint256 totalStakes = 0;\n    //     for(uint i = 0 ; i < complaint_stakes[id].length ; i++){\n    //         totalStakes += complaint_stakes[id][i].value;\n    //     } \n    //     return totalStakes;\n    // }\n\n    // function proposed_solution(bytes32 proposed_solution,uint id) public{\n    //     solved_by = bytes32(msg.sender);\n    //     all_complaints[id].proposed_solution = proposed_solution;\n    //     all_complaints[id].status = 1;\n    // }\n\n    // function closeComplain(address admin,uint id,uint status) public{\n    //     all_complaints[id].status = status;\n    // }\n\n\n}",
  "sourcePath": "/home/tushalien/Desktop/testing/RepoEther/contracts/Reporter.sol",
  "compiler": {
    "name": "solc",
    "version": "0.4.19+commit.c4cbbb05.Emscripten.clang"
  },
  "schemaVersion": "2.0.0",
  "updatedAt": "2018-03-18T03:35:53.949Z"
}