{
  "contractName": "Reporter",
  "abi": [
    {
      "constant": false,
      "inputs": [],
      "name": "get_all_complaints",
      "outputs": [
        {
          "name": "",
          "type": "uint256[]"
        },
        {
          "name": "",
          "type": "address[]"
        },
        {
          "name": "",
          "type": "bytes32[]"
        },
        {
          "name": "",
          "type": "bytes32[]"
        },
        {
          "name": "",
          "type": "uint256[]"
        },
        {
          "name": "",
          "type": "uint256[]"
        },
        {
          "name": "",
          "type": "bytes32[]"
        }
      ],
      "payable": false,
      "stateMutability": "nonpayable",
      "type": "function"
    },
    {
      "constant": true,
      "inputs": [
        {
          "name": "",
          "type": "address"
        },
        {
          "name": "",
          "type": "uint256"
        }
      ],
      "name": "lodged_complaints",
      "outputs": [
        {
          "name": "",
          "type": "uint256"
        }
      ],
      "payable": false,
      "stateMutability": "view",
      "type": "function"
    },
    {
      "constant": false,
      "inputs": [
        {
          "name": "type_of_complaint",
          "type": "uint256"
        },
        {
          "name": "visibility",
          "type": "uint256"
        },
        {
          "name": "complaint",
          "type": "bytes32"
        },
        {
          "name": "contact_info",
          "type": "bytes32"
        },
        {
          "name": "crime_time",
          "type": "bytes32"
        },
        {
          "name": "location",
          "type": "bytes32"
        }
      ],
      "name": "register_complaint",
      "outputs": [],
      "payable": true,
      "stateMutability": "payable",
      "type": "function"
    },
    {
      "constant": true,
      "inputs": [
        {
          "name": "",
          "type": "address"
        },
        {
          "name": "",
          "type": "uint256"
        }
      ],
      "name": "solved_complaints",
      "outputs": [
        {
          "name": "",
          "type": "uint256"
        }
      ],
      "payable": false,
      "stateMutability": "view",
      "type": "function"
    }
  ],
  "bytecode": "0x6060604052341561000f57600080fd5b610d0f8061001e6000396000f300606060405260043610610061576000357c0100000000000000000000000000000000000000000000000000000000900463ffffffff16806272e94e146100665780630205dd12146100955780633df3d507146100eb578063a3b9931c14610140575b600080fd5b341561007157600080fd5b610079610196565b60405161008c9796959493929190610b77565b60405180910390f35b34156100a057600080fd5b6100d5600480803573ffffffffffffffffffffffffffffffffffffffff1690602001909190803590602001909190505061045c565b6040516100e29190610c17565b60405180910390f35b61013e60048080359060200190919080359060200190919080356000191690602001909190803560001916906020019091908035600019169060200190919080356000191690602001909190505061048d565b005b341561014b57600080fd5b610180600480803573ffffffffffffffffffffffffffffffffffffffff16906020019091908035906020019091905050610728565b60405161018d9190610c17565b60405180910390f35b61019e610759565b6101a661076d565b6101ae610781565b6101b6610781565b6101be610759565b6101c6610759565b6101ce610781565b6101d6610759565b6101de610781565b6101e6610781565b6101ee610759565b6101f6610759565b6101fe610781565b61020661076d565b60008060028054905060405180591061021c5750595b908082528060200260200182016040525098506002805490506040518059106102425750595b908082528060200260200182016040525097506002805490506040518059106102685750595b9080825280602002602001820160405250965060028054905060405180591061028e5750595b908082528060200260200182016040525095506002805490506040518059106102b45750595b908082528060200260200182016040525094506002805490506040518059106102da5750595b908082528060200260200182016040525093506002805490506040518059106103005750595b90808252806020026020018201604052509250600091505b6002805490508210156104355760028281548110151561033457fe5b90600052602060002090600d020190508060000154898381518110151561035757fe5b90602001906020020181815250508060020154888381518110151561037857fe5b906020019060200201906000191690816000191681525050806003015487838151811015156103a357fe5b90602001906020020190600019169081600019168152505080600b015486838151811015156103ce57fe5b906020019060200201818152505080600a015485838151811015156103ef57fe5b90602001906020020181815250508060080154848381518110151561041057fe5b9060200190602002019060001916908160001916815250508180600101925050610318565b888389898989899f509f509f509f509f509f509f5050505050505050505090919293949596565b60016020528160005260406000208181548110151561047757fe5b9060005260206000209001600091509150505481565b610495610795565b600060016002805490500190508082600001818152505033826020019073ffffffffffffffffffffffffffffffffffffffff16908173ffffffffffffffffffffffffffffffffffffffff1681525050858260400190600019169081600019168152505084826060019060001916908160001916815250506020604051908101604052806000815250826080018190525060008260a001818152505060008260c001818152505060008260e00190600019169081600019168152505082826101000190600019169081600019168152505087826101600181815250508682610140018181525050838261018001906000191690816000191681525050600160003373ffffffffffffffffffffffffffffffffffffffff1673ffffffffffffffffffffffffffffffffffffffff16815260200190815260200160002080548060010182816105e1919061082c565b9160005260206000209001600083909190915055506002805480600101828161060a9190610858565b91600052602060002090600d020160008490919091506000820151816000015560208201518160010160006101000a81548173ffffffffffffffffffffffffffffffffffffffff021916908373ffffffffffffffffffffffffffffffffffffffff160217905550604082015181600201906000191690556060820151816003019060001916905560808201518160040190805190602001906106ad92919061088a565b5060a0820151816005015560c0820151816006015560e082015181600701906000191690556101008201518160080190600019169055610120820151816009019060001916905561014082015181600a015561016082015181600b015561018082015181600c01906000191690555050505050505050505050565b60006020528160005260406000208181548110151561074357fe5b9060005260206000209001600091509150505481565b602060405190810160405280600081525090565b602060405190810160405280600081525090565b602060405190810160405280600081525090565b6101a06040519081016040528060008152602001600073ffffffffffffffffffffffffffffffffffffffff16815260200160008019168152602001600080191681526020016107e261090a565b815260200160008152602001600081526020016000801916815260200160008019168152602001600080191681526020016000815260200160008152602001600080191681525090565b81548183558181151161085357818360005260206000209182019101610852919061091e565b5b505050565b81548183558181151161088557600d0281600d0283600052602060002091820191016108849190610943565b5b505050565b828054600181600116156101000203166002900490600052602060002090601f016020900481019282601f106108cb57805160ff19168380011785556108f9565b828001600101855582156108f9579182015b828111156108f85782518255916020019190600101906108dd565b5b509050610906919061091e565b5090565b602060405190810160405280600081525090565b61094091905b8082111561093c576000816000905550600101610924565b5090565b90565b6109ee91905b808211156109ea576000808201600090556001820160006101000a81549073ffffffffffffffffffffffffffffffffffffffff0219169055600282016000905560038201600090556004820160006109a191906109f1565b60058201600090556006820160009055600782016000905560088201600090556009820160009055600a820160009055600b820160009055600c82016000905550600d01610949565b5090565b90565b50805460018160011615610100020316600290046000825580601f10610a175750610a36565b601f016020900490600052602060002090810190610a35919061091e565b5b50565b610a4281610ca1565b82525050565b6000610a5382610c59565b808452602084019350610a6583610c32565b60005b82811015610a9757610a7b868351610a39565b610a8482610c7a565b9150602086019550600181019050610a68565b50849250505092915050565b6000610aae82610c64565b808452602084019350610ac083610c3f565b60005b82811015610af257610ad6868351610b59565b610adf82610c87565b9150602086019550600181019050610ac3565b50849250505092915050565b6000610b0982610c6f565b808452602084019350610b1b83610c4c565b60005b82811015610b4d57610b31868351610b68565b610b3a82610c94565b9150602086019550600181019050610b1e565b50849250505092915050565b610b6281610cc1565b82525050565b610b7181610ccb565b82525050565b600060e0820190508181036000830152610b91818a610afe565b90508181036020830152610ba58189610a48565b90508181036040830152610bb98188610aa3565b90508181036060830152610bcd8187610aa3565b90508181036080830152610be18186610afe565b905081810360a0830152610bf58185610afe565b905081810360c0830152610c098184610aa3565b905098975050505050505050565b6000602082019050610c2c6000830184610b68565b92915050565b6000602082019050919050565b6000602082019050919050565b6000602082019050919050565b600081519050919050565b600081519050919050565b600081519050919050565b6000602082019050919050565b6000602082019050919050565b6000602082019050919050565b600073ffffffffffffffffffffffffffffffffffffffff82169050919050565b6000819050919050565b60008190509190505600a265627a7a7230582024ab96fcbbd12752a0cabbb644ffe44ba9f672bdae1fb1cbb9d48a1a4866e8046c6578706572696d656e74616cf50037",
  "source": "pragma solidity ^0.4.18;\npragma experimental ABIEncoderV2;\n\ncontract Reporter {\n\n    struct Complaint {\n        uint id;\n        address admin; //adhaar card of person registering complaint.\n        bytes32 complaint;\n        bytes32 contact_info;\n        // string address_info;\n        string proposed_solution;\n        // bytes32 documents;\n        uint status;//0-> pending/open 1-> in process 2->closed/resolved\n        uint256 upvotes;\n        bytes32 solved_by; //adhaar_card of person who solved it\n        bytes32 location;//In the form of longitude latitude\n        bytes32 date_of_crime;\n        uint visibility;//0 -> closed 1-> open\n        uint type_of_complaint;// 0-> criminal cases eg(Theft) 1->civil cases( Consumer court )2->enforcement( debt issue )\n        bytes32 crime_time;\n    }\n    //Mapping of adhaar card to array of complaint id;\n    mapping(address => uint[]) public solved_complaints;\n\n    //Mapping of adhaar card to array of lodged solved_complaints\n    //To retreive complaints a person has lodged\n    mapping(address => uint[]) public lodged_complaints;\n\n    //All complaints\n    Complaint[] all_complaints;\n\n    //Getter for all_complaints\n    function get_all_complaints() public returns (uint[], address[], bytes32[],bytes32[], uint[], uint[], bytes32[]){\n        uint[] memory id = new uint[](all_complaints.length);\n        bytes32[] memory title = new bytes32[](all_complaints.length);\n        bytes32[] memory contact_info = new bytes32[](all_complaints.length);\n        uint[] memory type_of_complaint = new uint[](all_complaints.length);\n        uint[] memory visibility = new uint[](all_complaints.length);\n        bytes32[] memory location = new bytes32[](all_complaints.length);\n        // bytes32[] memory crime_time = new bytes32[](all_complaints.length);\n        address[] memory admin = new address[](all_complaints.length);\n        for(uint i=0;i<all_complaints.length;i++){\n            Complaint storage c = all_complaints[i];\n            id[i] = c.id;\n            title[i] = c.complaint;\n            contact_info[i] = c.contact_info;\n            type_of_complaint[i] = c.type_of_complaint;\n            visibility[i] = c.visibility;\n            location[i] = c.location;\n            // crime_time[i] = c.crime_time;\n        }\n\n        return(id, admin, title, contact_info, type_of_complaint, visibility, location);\n    }\n    \n// uint id,string documents,uint type_of_complaint, uint visibility,  bytes32 admin, string title, string contact_info, string address_info, uint256 time, string location\n    function register_complaint(uint type_of_complaint, uint visibility, bytes32 complaint, bytes32 contact_info, bytes32 crime_time, bytes32 location) public payable{\n        Complaint memory newcomplaint;\n        uint id = all_complaints.length+1;\n        newcomplaint.id = id;\n        newcomplaint.admin = msg.sender;\n        newcomplaint.complaint = bytes32(complaint);\n        newcomplaint.contact_info = contact_info;\n        newcomplaint.proposed_solution = '';\n        newcomplaint.status = 0;\n        newcomplaint.upvotes = 0;\n        newcomplaint.solved_by = '';\n        // newcomplaint.time = time;\n        newcomplaint.location = bytes32(location);\n        newcomplaint.type_of_complaint = type_of_complaint;\n        newcomplaint.visibility = visibility;\n        newcomplaint.crime_time = crime_time;\n\n        //Add this complaint to array of lodged complaints by the adhaar number\n        lodged_complaints[msg.sender].push(id);\n        //Add this complaint to array of all complaints\n        all_complaints.push(newcomplaint);\n\n    }\n\n}",
  "sourcePath": "/home/worm/Desktop/HINT/RepoEther/contracts/Reporter.sol",
  "compiler": {
    "name": "solc",
    "version": "0.4.18+commit.9cf6e910.Emscripten.clang"
  },
  "schemaVersion": "1.0.1",
  "updatedAt": "2018-03-17T10:15:19.611Z"
}