{
  "contractName": "Reporter",
  "abi": [
    {
      "constant": false,
      "inputs": [],
      "name": "get_all_complaints",
      "outputs": [
        {
          "name": "",
          "type": "address[]"
        },
        {
          "name": "",
          "type": "bytes32[]"
        },
        {
          "name": "",
          "type": "uint256[]"
        },
        {
          "name": "",
          "type": "uint256[]"
        },
        {
          "name": "",
          "type": "uint256[]"
        },
        {
          "name": "",
          "type": "bytes32[]"
        }
      ],
      "payable": false,
      "stateMutability": "nonpayable",
      "type": "function"
    },
    {
      "constant": true,
      "inputs": [
        {
          "name": "",
          "type": "address"
        },
        {
          "name": "",
          "type": "uint256"
        }
      ],
      "name": "lodged_complaints",
      "outputs": [
        {
          "name": "",
          "type": "uint256"
        }
      ],
      "payable": false,
      "stateMutability": "view",
      "type": "function"
    },
    {
      "constant": false,
      "inputs": [
        {
          "name": "_address",
          "type": "bytes"
        }
      ],
      "name": "bytesToAddress",
      "outputs": [
        {
          "name": "",
          "type": "address"
        }
      ],
      "payable": false,
      "stateMutability": "nonpayable",
      "type": "function"
    },
    {
      "constant": false,
      "inputs": [
        {
          "name": "type_of_complaint",
          "type": "uint256"
        },
        {
          "name": "visibility",
          "type": "uint256"
        },
        {
          "name": "complaint",
          "type": "bytes32"
        },
        {
          "name": "contact_info",
          "type": "uint256"
        },
        {
          "name": "crime_time",
          "type": "bytes32"
        },
        {
          "name": "location",
          "type": "bytes32"
        }
      ],
      "name": "register_complaint",
      "outputs": [],
      "payable": true,
      "stateMutability": "payable",
      "type": "function"
    },
    {
      "constant": true,
      "inputs": [
        {
          "name": "",
          "type": "address"
        },
        {
          "name": "",
          "type": "uint256"
        }
      ],
      "name": "solved_complaints",
      "outputs": [
        {
          "name": "",
          "type": "uint256"
        }
      ],
      "payable": false,
      "stateMutability": "view",
      "type": "function"
    }
  ],
  "bytecode": "0x6060604052341561000f57600080fd5b610dd78061001e6000396000f30060606040526004361061006c576000357c0100000000000000000000000000000000000000000000000000000000900463ffffffff16806272e94e146100715780630205dd121461009f57806342526e4e146100f55780635e42080e14610166578063a3b9931c146101b7575b600080fd5b341561007c57600080fd5b61008461020d565b60405161009696959493929190610c54565b60405180910390f35b34156100aa57600080fd5b6100df600480803573ffffffffffffffffffffffffffffffffffffffff1690602001909190803590602001909190505061046d565b6040516100ec9190610cdf565b60405180910390f35b341561010057600080fd5b610150600480803590602001908201803590602001908080601f0160208091040260200160405190810160405280939291908181526020018383808284378201915050505050509190505061049e565b60405161015d9190610c39565b60405180910390f35b6101b56004808035906020019091908035906020019091908035600019169060200190919080359060200190919080356000191690602001909190803560001916906020019091905050610562565b005b34156101c257600080fd5b6101f7600480803573ffffffffffffffffffffffffffffffffffffffff169060200190919080359060200190919050506107ed565b6040516102049190610cdf565b60405180910390f35b61021561081e565b61021d610832565b610225610846565b61022d610846565b610235610846565b61023d610832565b610245610832565b61024d610846565b610255610846565b61025d610846565b610265610832565b61026d61081e565b6000806002805490506040518059106102835750595b908082528060200260200182016040525097506002805490506040518059106102a95750595b908082528060200260200182016040525096506002805490506040518059106102cf5750595b908082528060200260200182016040525095506002805490506040518059106102f55750595b9080825280602002602001820160405250945060028054905060405180591061031b5750595b908082528060200260200182016040525093506002805490506040518059106103415750595b90808252806020026020018201604052509250600091505b60028054905082101561044b5760028281548110151561037557fe5b90600052602060002090600d020190508060020154888381518110151561039857fe5b906020019060200201906000191690816000191681525050806003015487838151811015156103c357fe5b906020019060200201818152505080600b015486838151811015156103e457fe5b906020019060200201818152505080600a0154858381518110151561040557fe5b906020019060200201818152505080600c0154848381518110151561042657fe5b9060200190602002019060001916908160001916815250508180600101925050610359565b8288888888889d509d509d509d509d509d505050505050505050909192939495565b60016020528160005260406000208181548110151561048857fe5b9060005260206000209001600091509150505481565b6000806000806000925060009150600090505b60148160ff1610156105575761010083029250848160ff168151811015156104d557fe5b9060200101517f010000000000000000000000000000000000000000000000000000000000000090047f0100000000000000000000000000000000000000000000000000000000000000027f010000000000000000000000000000000000000000000000000000000000000090049150818301925080806001019150506104b1565b829350505050919050565b61056a61085a565b600060016002805490500190508082600001818152505033826020019073ffffffffffffffffffffffffffffffffffffffff16908173ffffffffffffffffffffffffffffffffffffffff16815250508582604001906000191690816000191681525050848260600181815250506020604051908101604052806000815250826080018190525060008260a001818152505060008260c001818152505060008260e00190600019169081600019168152505082826101000190600019169081600019168152505087826101600181815250508682610140018181525050838261018001906000191690816000191681525050600160003373ffffffffffffffffffffffffffffffffffffffff1673ffffffffffffffffffffffffffffffffffffffff16815260200190815260200160002080548060010182816106ac91906108ee565b916000526020600020900160008390919091505550600280548060010182816106d5919061091a565b91600052602060002090600d020160008490919091506000820151816000015560208201518160010160006101000a81548173ffffffffffffffffffffffffffffffffffffffff021916908373ffffffffffffffffffffffffffffffffffffffff1602179055506040820151816002019060001916905560608201518160030155608082015181600401908051906020019061077292919061094c565b5060a0820151816005015560c0820151816006015560e082015181600701906000191690556101008201518160080190600019169055610120820151816009019060001916905561014082015181600a015561016082015181600b015561018082015181600c01906000191690555050505050505050505050565b60006020528160005260406000208181548110151561080857fe5b9060005260206000209001600091509150505481565b602060405190810160405280600081525090565b602060405190810160405280600081525090565b602060405190810160405280600081525090565b6101a06040519081016040528060008152602001600073ffffffffffffffffffffffffffffffffffffffff16815260200160008019168152602001600081526020016108a46109cc565b815260200160008152602001600081526020016000801916815260200160008019168152602001600080191681526020016000815260200160008152602001600080191681525090565b8154818355818115116109155781836000526020600020918201910161091491906109e0565b5b505050565b81548183558181151161094757600d0281600d0283600052602060002091820191016109469190610a05565b5b505050565b828054600181600116156101000203166002900490600052602060002090601f016020900481019282601f1061098d57805160ff19168380011785556109bb565b828001600101855582156109bb579182015b828111156109ba57825182559160200191906001019061099f565b5b5090506109c891906109e0565b5090565b602060405190810160405280600081525090565b610a0291905b808211156109fe5760008160009055506001016109e6565b5090565b90565b610ab091905b80821115610aac576000808201600090556001820160006101000a81549073ffffffffffffffffffffffffffffffffffffffff021916905560028201600090556003820160009055600482016000610a639190610ab3565b60058201600090556006820160009055600782016000905560088201600090556009820160009055600a820160009055600b820160009055600c82016000905550600d01610a0b565b5090565b90565b50805460018160011615610100020316600290046000825580601f10610ad95750610af8565b601f016020900490600052602060002090810190610af791906109e0565b5b50565b610b0481610d69565b82525050565b6000610b1582610d21565b808452602084019350610b2783610cfa565b60005b82811015610b5957610b3d868351610afb565b610b4682610d42565b9150602086019550600181019050610b2a565b50849250505092915050565b6000610b7082610d2c565b808452602084019350610b8283610d07565b60005b82811015610bb457610b98868351610c1b565b610ba182610d4f565b9150602086019550600181019050610b85565b50849250505092915050565b6000610bcb82610d37565b808452602084019350610bdd83610d14565b60005b82811015610c0f57610bf3868351610c2a565b610bfc82610d5c565b9150602086019550600181019050610be0565b50849250505092915050565b610c2481610d89565b82525050565b610c3381610d93565b82525050565b6000602082019050610c4e6000830184610afb565b92915050565b600060c0820190508181036000830152610c6e8189610b0a565b90508181036020830152610c828188610b65565b90508181036040830152610c968187610bc0565b90508181036060830152610caa8186610bc0565b90508181036080830152610cbe8185610bc0565b905081810360a0830152610cd28184610b65565b9050979650505050505050565b6000602082019050610cf46000830184610c2a565b92915050565b6000602082019050919050565b6000602082019050919050565b6000602082019050919050565b600081519050919050565b600081519050919050565b600081519050919050565b6000602082019050919050565b6000602082019050919050565b6000602082019050919050565b600073ffffffffffffffffffffffffffffffffffffffff82169050919050565b6000819050919050565b60008190509190505600a265627a7a72305820634bc0509dad046573df0c34f4bab0365926e12d26553bc7d99ca1e0a01709b56c6578706572696d656e74616cf50037",
  "source": "pragma solidity ^0.4.18;\npragma experimental ABIEncoderV2;\n\ncontract Reporter {\n\n    struct Complaint {\n        uint id;\n        address admin; //adhaar card of person registering complaint.\n        bytes32 complaint;\n        uint contact_info;\n        // string address_info;\n        string proposed_solution;\n        // bytes32 documents;\n        uint status;//0-> pending/open 1-> in process 2->closed/resolved\n        uint256 upvotes;\n        bytes32 solved_by; //adhaar_card of person who solved it\n        bytes32 location;//In the form of longitude latitude\n        bytes32 date_of_crime;\n        uint visibility;//0 -> closed 1-> open\n        uint type_of_complaint;// 0-> criminal cases eg(Theft) 1->civil cases( Consumer court )2->enforcement( debt issue )\n        bytes32 crime_time;\n    }\n    //Mapping of adhaar card to array of complaint id;\n    mapping(address => uint[]) public solved_complaints;\n\n    //Mapping of adhaar card to array of lodged solved_complaints\n    //To retreive complaints a person has lodged\n    mapping(address => uint[]) public lodged_complaints;\n\n    //All complaints\n    Complaint[] all_complaints;\n\n     function bytesToAddress(bytes _address) public returns (address) {\n    uint160 m = 0;\n    uint160 b = 0;\n\n    for (uint8 i = 0; i < 20; i++) {\n      m *= 256;\n      b = uint160(_address[i]);\n      m += (b);\n    }\n\n    return address(m);\n  }\n\n  //address addr = bytesToAddress(\"0x5794ff959eb9c6a2afe82f8ed30e0973b40c8842\");\n\n    //Getter for all_complaints\n    function get_all_complaints() public returns (address[], bytes32[],uint[], uint[], uint[], bytes32[]){\n        bytes32[] memory title = new bytes32[](all_complaints.length);\n        uint[] memory contact_info = new uint[](all_complaints.length);\n        uint[] memory type_of_complaint = new uint[](all_complaints.length);\n        uint[] memory visibility = new uint[](all_complaints.length);\n        bytes32[] memory crime_time = new bytes32[](all_complaints.length);\n        address[] memory admin = new address[](all_complaints.length);\n        for(uint i=0;i<all_complaints.length;i++){\n            Complaint storage c = all_complaints[i];\n            //id[i] = c.id;\n            title[i] = c.complaint;\n            contact_info[i] = c.contact_info;\n            type_of_complaint[i] = c.type_of_complaint;\n            visibility[i] = c.visibility;\n         //   location[i] = c.location;\n            crime_time[i] = c.crime_time;\n        }\n\n        return(admin, title, contact_info, type_of_complaint, visibility, crime_time);\n    }\n    \n// uint id,string documents,uint type_of_complaint, uint visibility,  bytes32 admin, string title, string contact_info, string address_info, uint256 time, string location\n    function register_complaint(uint type_of_complaint, uint visibility, bytes32 complaint, uint contact_info, bytes32 crime_time, bytes32 location) public payable{\n        Complaint memory newcomplaint;\n        uint id = all_complaints.length+1;\n        newcomplaint.id = id;\n        newcomplaint.admin = msg.sender;\n        newcomplaint.complaint = bytes32(complaint);\n        newcomplaint.contact_info = contact_info;\n        newcomplaint.proposed_solution = '';\n        newcomplaint.status = 0;\n        newcomplaint.upvotes = 0;\n        newcomplaint.solved_by = '';\n        // newcomplaint.time = time;\n        newcomplaint.location = bytes32(location);\n        newcomplaint.type_of_complaint = type_of_complaint;\n        newcomplaint.visibility = visibility;\n        newcomplaint.crime_time = crime_time;\n\n        //Add this complaint to array of lodged complaints by the adhaar number\n        lodged_complaints[msg.sender].push(id);\n        //Add this complaint to array of all complaints\n        all_complaints.push(newcomplaint);\n\n    }\n\n}",
  "sourcePath": "/home/worm/Desktop/HINT/RepoEther/contracts/Reporter.sol",
  "compiler": {
    "name": "solc",
    "version": "0.4.18+commit.9cf6e910.Emscripten.clang"
  },
  "schemaVersion": "1.0.1",
  "updatedAt": "2018-03-17T15:09:07.961Z"
}