{
  "contractName": "Reporter",
  "abi": [
    {
      "constant": true,
      "inputs": [
        {
          "name": "",
          "type": "address"
        },
        {
          "name": "",
          "type": "uint256"
        }
      ],
      "name": "lodged_complaints",
      "outputs": [
        {
          "name": "",
          "type": "uint256"
        }
      ],
      "payable": false,
      "stateMutability": "view",
      "type": "function"
    },
    {
      "constant": true,
      "inputs": [
        {
          "name": "",
          "type": "address"
        },
        {
          "name": "",
          "type": "uint256"
        }
      ],
      "name": "solved_complaints",
      "outputs": [
        {
          "name": "",
          "type": "uint256"
        }
      ],
      "payable": false,
      "stateMutability": "view",
      "type": "function"
    },
    {
      "constant": false,
      "inputs": [
        {
          "name": "_address",
          "type": "bytes"
        }
      ],
      "name": "bytesToAddress",
      "outputs": [
        {
          "name": "",
          "type": "address"
        }
      ],
      "payable": false,
      "stateMutability": "nonpayable",
      "type": "function"
    },
    {
      "constant": false,
      "inputs": [],
      "name": "get_all_complaints",
      "outputs": [
        {
          "name": "",
          "type": "address[]"
        },
        {
          "name": "",
          "type": "bytes32[]"
        },
        {
          "name": "",
          "type": "uint256[]"
        },
        {
          "name": "",
          "type": "uint256[]"
        },
        {
          "name": "",
          "type": "uint256[]"
        },
        {
          "name": "",
          "type": "bytes32[]"
        }
      ],
      "payable": false,
      "stateMutability": "nonpayable",
      "type": "function"
    },
    {
      "constant": false,
      "inputs": [
        {
          "name": "type_of_complaint",
          "type": "uint256"
        },
        {
          "name": "visibility",
          "type": "uint256"
        },
        {
          "name": "complaint",
          "type": "bytes32"
        },
        {
          "name": "contact_info",
          "type": "uint256"
        },
        {
          "name": "crime_time",
          "type": "bytes32"
        },
        {
          "name": "location",
          "type": "bytes32"
        }
      ],
      "name": "register_complaint",
      "outputs": [],
      "payable": true,
      "stateMutability": "payable",
      "type": "function"
    }
  ],
  "bytecode": "0x6060604052341561000f57600080fd5b610f9d8061001e6000396000f30060606040526004361061006c576000357c0100000000000000000000000000000000000000000000000000000000900463ffffffff16806272e94e146100715780630205dd121461009f57806342526e4e146100d55780635e42080e1461010b578063a3b9931c14610122575b600080fd5b341561007c57600080fd5b610084610158565b60405161009696959493929190610d6c565b60405180910390f35b34156100aa57600080fd5b6100bf60046100ba903690610ae9565b6103b8565b6040516100cc9190610df7565b60405180910390f35b34156100e057600080fd5b6100f560046100f0903690610b2e565b6103e9565b6040516101029190610d51565b60405180910390f35b610120600461011b903690610b81565b6104ad565b005b341561012d57600080fd5b610142600461013d903690610ae9565b610738565b60405161014f9190610df7565b60405180910390f35b610160610769565b61016861077d565b610170610791565b610178610791565b610180610791565b61018861077d565b61019061077d565b610198610791565b6101a0610791565b6101a8610791565b6101b061077d565b6101b8610769565b6000806002805490506040518059106101ce5750595b908082528060200260200182016040525097506002805490506040518059106101f45750595b9080825280602002602001820160405250965060028054905060405180591061021a5750595b908082528060200260200182016040525095506002805490506040518059106102405750595b908082528060200260200182016040525094506002805490506040518059106102665750595b9080825280602002602001820160405250935060028054905060405180591061028c5750595b90808252806020026020018201604052509250600091505b600280549050821015610396576002828154811015156102c057fe5b90600052602060002090600d02019050806002015488838151811015156102e357fe5b9060200190602002019060001916908160001916815250508060030154878381518110151561030e57fe5b906020019060200201818152505080600b0154868381518110151561032f57fe5b906020019060200201818152505080600a0154858381518110151561035057fe5b906020019060200201818152505080600c0154848381518110151561037157fe5b90602001906020020190600019169081600019168152505081806001019250506102a4565b8288888888889d509d509d509d509d509d505050505050505050909192939495565b6001602052816000526040600020818154811015156103d357fe5b9060005260206000209001600091509150505481565b6000806000806000925060009150600090505b60148160ff1610156104a25761010083029250848160ff1681518110151561042057fe5b9060200101517f010000000000000000000000000000000000000000000000000000000000000090047f0100000000000000000000000000000000000000000000000000000000000000027f010000000000000000000000000000000000000000000000000000000000000090049150818301925080806001019150506103fc565b829350505050919050565b6104b56107a5565b600060016002805490500190508082600001818152505033826020019073ffffffffffffffffffffffffffffffffffffffff16908173ffffffffffffffffffffffffffffffffffffffff16815250508582604001906000191690816000191681525050848260600181815250506020604051908101604052806000815250826080018190525060008260a001818152505060008260c001818152505060008260e00190600019169081600019168152505082826101000190600019169081600019168152505087826101600181815250508682610140018181525050838261018001906000191690816000191681525050600160003373ffffffffffffffffffffffffffffffffffffffff1673ffffffffffffffffffffffffffffffffffffffff16815260200190815260200160002080548060010182816105f79190610839565b916000526020600020900160008390919091505550600280548060010182816106209190610865565b91600052602060002090600d020160008490919091506000820151816000015560208201518160010160006101000a81548173ffffffffffffffffffffffffffffffffffffffff021916908373ffffffffffffffffffffffffffffffffffffffff160217905550604082015181600201906000191690556060820151816003015560808201518160040190805190602001906106bd929190610897565b5060a0820151816005015560c0820151816006015560e082015181600701906000191690556101008201518160080190600019169055610120820151816009019060001916905561014082015181600a015561016082015181600b015561018082015181600c01906000191690555050505050505050505050565b60006020528160005260406000208181548110151561075357fe5b9060005260206000209001600091509150505481565b602060405190810160405280600081525090565b602060405190810160405280600081525090565b602060405190810160405280600081525090565b6101a06040519081016040528060008152602001600073ffffffffffffffffffffffffffffffffffffffff16815260200160008019168152602001600081526020016107ef610917565b815260200160008152602001600081526020016000801916815260200160008019168152602001600080191681526020016000815260200160008152602001600080191681525090565b8154818355818115116108605781836000526020600020918201910161085f919061092b565b5b505050565b81548183558181151161089257600d0281600d0283600052602060002091820191016108919190610950565b5b505050565b828054600181600116156101000203166002900490600052602060002090601f016020900481019282601f106108d857805160ff1916838001178555610906565b82800160010185558215610906579182015b828111156109055782518255916020019190600101906108ea565b5b509050610913919061092b565b5090565b602060405190810160405280600081525090565b61094d91905b80821115610949576000816000905550600101610931565b5090565b90565b6109fb91905b808211156109f7576000808201600090556001820160006101000a81549073ffffffffffffffffffffffffffffffffffffffff0219169055600282016000905560038201600090556004820160006109ae91906109fe565b60058201600090556006820160009055600782016000905560088201600090556009820160009055600a820160009055600b820160009055600c82016000905550600d01610956565b5090565b90565b50805460018160011615610100020316600290046000825580601f10610a245750610a43565b601f016020900490600052602060002090810190610a42919061092b565b5b50565b6000610a528235610f20565b905092915050565b6000610a668235610f40565b905092915050565b600082601f83011260008114610a8357610a88565b600080fd5b508135610a9c610a9782610e48565b610e12565b91508082526020830160208301858383011160018114610abb57610ac0565b600080fd5b50610acc838284610f54565b50505092915050565b6000610ae18235610f4a565b905092915050565b60008060408385031260018114610aff57610b04565b600080fd5b506000610b1385828601610a46565b9250506020610b2485828601610ad5565b9150509250929050565b600060208284031260018114610b4357610b48565b600080fd5b50600082013567ffffffffffffffff811160018114610b6657610b6b565b600080fd5b50610b7884828501610a6e565b91505092915050565b60008060008060008060c08789031260018114610b9d57610ba2565b600080fd5b506000610bb189828a01610ad5565b9650506020610bc289828a01610ad5565b9550506040610bd389828a01610a5a565b9450506060610be489828a01610ad5565b9350506080610bf589828a01610a5a565b92505060a0610c0689828a01610a5a565b9150509295509295509295565b610c1c81610eec565b82525050565b6000610c2d82610ea4565b808452602084019350610c3f83610e7d565b60005b82811015610c7157610c55868351610c13565b610c5e82610ec5565b9150602086019550600181019050610c42565b50849250505092915050565b6000610c8882610eaf565b808452602084019350610c9a83610e8a565b60005b82811015610ccc57610cb0868351610d33565b610cb982610ed2565b9150602086019550600181019050610c9d565b50849250505092915050565b6000610ce382610eba565b808452602084019350610cf583610e97565b60005b82811015610d2757610d0b868351610d42565b610d1482610edf565b9150602086019550600181019050610cf8565b50849250505092915050565b610d3c81610f0c565b82525050565b610d4b81610f16565b82525050565b6000602082019050610d666000830184610c13565b92915050565b600060c0820190508181036000830152610d868189610c22565b90508181036020830152610d9a8188610c7d565b90508181036040830152610dae8187610cd8565b90508181036060830152610dc28186610cd8565b90508181036080830152610dd68185610cd8565b905081810360a0830152610dea8184610c7d565b9050979650505050505050565b6000602082019050610e0c6000830184610d42565b92915050565b6000604051905081810181811067ffffffffffffffff82111760018114610e3857610e3d565b600080fd5b508060405250919050565b600067ffffffffffffffff821160018114610e6257610e67565b600080fd5b50601f19601f8301169050602081019050919050565b6000602082019050919050565b6000602082019050919050565b6000602082019050919050565b600081519050919050565b600081519050919050565b600081519050919050565b6000602082019050919050565b6000602082019050919050565b6000602082019050919050565b600073ffffffffffffffffffffffffffffffffffffffff82169050919050565b6000819050919050565b6000819050919050565b600073ffffffffffffffffffffffffffffffffffffffff82169050919050565b6000819050919050565b6000819050919050565b828183376000838301525050505600a265627a7a72305820b5e6586b2fc7c9d0a6c1443f808c01e9d62852068a922836587fd95702cc60d36c6578706572696d656e74616cf50037",
  "source": "pragma solidity ^0.4.18;\npragma experimental ABIEncoderV2;\n\ncontract Reporter {\n\n    struct Complaint {\n        uint id;\n        address admin; //adhaar card of person registering complaint.\n        bytes32 complaint;\n        uint contact_info;\n        // string address_info;\n        string proposed_solution;\n        // bytes32 documents;\n        uint status;//0-> pending/open 1-> in process 2->closed/resolved\n        uint256 upvotes;\n        bytes32 solved_by; //adhaar_card of person who solved it\n        bytes32 location;//In the form of longitude latitude\n        bytes32 date_of_crime;\n        uint visibility;//0 -> closed 1-> open\n        uint type_of_complaint;// 0-> criminal cases eg(Theft) 1->civil cases( Consumer court )2->enforcement( debt issue )\n        bytes32 crime_time;\n    }\n    //Mapping of adhaar card to array of complaint id;\n    mapping(address => uint[]) public solved_complaints;\n\n    //Mapping of adhaar card to array of lodged solved_complaints\n    //To retreive complaints a person has lodged\n    mapping(address => uint[]) public lodged_complaints;\n\n    //All complaints\n    Complaint[] all_complaints;\n\n     function bytesToAddress(bytes _address) public returns (address) {\n    uint160 m = 0;\n    uint160 b = 0;\n\n    for (uint8 i = 0; i < 20; i++) {\n      m *= 256;\n      b = uint160(_address[i]);\n      m += (b);\n    }\n\n    return address(m);\n  }\n\n  //address addr = bytesToAddress(\"0x5794ff959eb9c6a2afe82f8ed30e0973b40c8842\");\n\n    //Getter for all_complaints\n    function get_all_complaints() public returns (address[], bytes32[],uint[], uint[], uint[], bytes32[]){\n        bytes32[] memory title = new bytes32[](all_complaints.length);\n        uint[] memory contact_info = new uint[](all_complaints.length);\n        uint[] memory type_of_complaint = new uint[](all_complaints.length);\n        uint[] memory visibility = new uint[](all_complaints.length);\n        bytes32[] memory crime_time = new bytes32[](all_complaints.length);\n        address[] memory admin = new address[](all_complaints.length);\n        for(uint i=0;i<all_complaints.length;i++){\n            Complaint storage c = all_complaints[i];\n            //id[i] = c.id;\n            title[i] = c.complaint;\n            contact_info[i] = c.contact_info;\n            type_of_complaint[i] = c.type_of_complaint;\n            visibility[i] = c.visibility;\n         //   location[i] = c.location;\n            crime_time[i] = c.crime_time;\n        }\n\n        return(admin, title, contact_info, type_of_complaint, visibility, crime_time);\n    }\n    \n// uint id,string documents,uint type_of_complaint, uint visibility,  bytes32 admin, string title, string contact_info, string address_info, uint256 time, string location\n    function register_complaint(uint type_of_complaint, uint visibility, bytes32 complaint, uint contact_info, bytes32 crime_time, bytes32 location) public payable{\n        Complaint memory newcomplaint;\n        uint id = all_complaints.length+1;\n        newcomplaint.id = id;\n        newcomplaint.admin = msg.sender;\n        newcomplaint.complaint = bytes32(complaint);\n        newcomplaint.contact_info = contact_info;\n        newcomplaint.proposed_solution = '';\n        newcomplaint.status = 0;\n        newcomplaint.upvotes = 0;\n        newcomplaint.solved_by = '';\n        // newcomplaint.time = time;\n        newcomplaint.location = bytes32(location);\n        newcomplaint.type_of_complaint = type_of_complaint;\n        newcomplaint.visibility = visibility;\n        newcomplaint.crime_time = crime_time;\n\n        //Add this complaint to array of lodged complaints by the adhaar number\n        lodged_complaints[msg.sender].push(id);\n        //Add this complaint to array of all complaints\n        all_complaints.push(newcomplaint);\n\n    }\n\n}",
  "sourcePath": "/home/tushalien/Desktop/HINT/RepoEther/contracts/Reporter.sol",
  "compiler": {
    "name": "solc",
    "version": "0.4.19+commit.c4cbbb05.Emscripten.clang"
  },
  "schemaVersion": "2.0.0",
  "updatedAt": "2018-03-17T14:00:54.082Z"
}