{
  "contractName": "Reporter",
  "abi": [
    {
      "constant": true,
      "inputs": [
        {
          "name": "",
          "type": "address"
        },
        {
          "name": "",
          "type": "uint256"
        }
      ],
      "name": "lodged_complaints",
      "outputs": [
        {
          "name": "",
          "type": "uint256"
        }
      ],
      "payable": false,
      "stateMutability": "view",
      "type": "function"
    },
    {
      "constant": true,
      "inputs": [
        {
          "name": "",
          "type": "address"
        },
        {
          "name": "",
          "type": "uint256"
        }
      ],
      "name": "process_complaints",
      "outputs": [
        {
          "name": "",
          "type": "uint256"
        }
      ],
      "payable": false,
      "stateMutability": "view",
      "type": "function"
    },
    {
      "constant": true,
      "inputs": [
        {
          "name": "",
          "type": "address"
        },
        {
          "name": "",
          "type": "uint256"
        }
      ],
      "name": "solved_complaints",
      "outputs": [
        {
          "name": "",
          "type": "uint256"
        }
      ],
      "payable": false,
      "stateMutability": "view",
      "type": "function"
    },
    {
      "constant": false,
      "inputs": [
        {
          "name": "_address",
          "type": "bytes"
        }
      ],
      "name": "bytesToAddress",
      "outputs": [
        {
          "name": "",
          "type": "address"
        }
      ],
      "payable": false,
      "stateMutability": "nonpayable",
      "type": "function"
    },
    {
      "constant": false,
      "inputs": [],
      "name": "get_all_complaints",
      "outputs": [
        {
          "name": "",
          "type": "bytes32[]"
        },
        {
          "name": "",
          "type": "uint256[]"
        },
        {
          "name": "",
          "type": "uint256[]"
        },
        {
          "name": "",
          "type": "uint256[]"
        },
        {
          "name": "",
          "type": "uint256[]"
        },
        {
          "name": "",
          "type": "bytes32[]"
        }
      ],
      "payable": false,
      "stateMutability": "nonpayable",
      "type": "function"
    },
    {
      "constant": false,
      "inputs": [
        {
          "name": "type_of_complaint",
          "type": "uint256"
        },
        {
          "name": "visibility",
          "type": "uint256"
        },
        {
          "name": "complaint",
          "type": "bytes32"
        },
        {
          "name": "contact_info",
          "type": "uint256"
        },
        {
          "name": "crime_time",
          "type": "bytes32"
        },
        {
          "name": "location",
          "type": "bytes32"
        }
      ],
      "name": "register_complaint",
      "outputs": [],
      "payable": true,
      "stateMutability": "payable",
      "type": "function"
    },
    {
      "constant": false,
      "inputs": [
        {
          "name": "id",
          "type": "uint256"
        }
      ],
      "name": "get_upvotes_status",
      "outputs": [
        {
          "name": "",
          "type": "uint256[]"
        },
        {
          "name": "",
          "type": "uint256[]"
        }
      ],
      "payable": false,
      "stateMutability": "nonpayable",
      "type": "function"
    },
    {
      "constant": false,
      "inputs": [
        {
          "name": "id",
          "type": "uint256"
        }
      ],
      "name": "upvote",
      "outputs": [],
      "payable": true,
      "stateMutability": "payable",
      "type": "function"
    },
    {
      "constant": false,
      "inputs": [
        {
          "name": "id",
          "type": "uint256"
        }
      ],
      "name": "accept_complaint",
      "outputs": [],
      "payable": false,
      "stateMutability": "nonpayable",
      "type": "function"
    },
    {
      "constant": false,
      "inputs": [
        {
          "name": "id",
          "type": "uint256"
        }
      ],
      "name": "close_complaint",
      "outputs": [],
      "payable": false,
      "stateMutability": "nonpayable",
      "type": "function"
    }
  ],
  "bytecode": "0x6060604052341561000f57600080fd5b6112448061001e6000396000f3006060604052600436106100a3576000357c0100000000000000000000000000000000000000000000000000000000900463ffffffff16806272e94e146100a857806301ddf070146100d65780630205dd12146100ed578063242b43811461012357806342526e4e1461015a5780635e42080e1461019057806373407453146101a75780638c14abf5146101dd578063a3b9931c146101ff578063def7107414610235575b600080fd5b34156100b357600080fd5b6100bb610257565b6040516100cd96959493929190611001565b60405180910390f35b6100eb60046100e6903690610e3f565b6104d8565b005b34156100f857600080fd5b61010d6004610108903690610da7565b610509565b60405161011a91906110c3565b60405180910390f35b341561012e57600080fd5b610143600461013e903690610e3f565b61053a565b60405161015192919061108c565b60405180910390f35b341561016557600080fd5b61017a6004610175903690610dec565b610638565b6040516101879190610fe6565b60405180910390f35b6101a560046101a0903690610e71565b6106fc565b005b34156101b257600080fd5b6101c760046101c2903690610da7565b610987565b6040516101d491906110c3565b60405180910390f35b34156101e857600080fd5b6101fd60046101f8903690610e3f565b6109b8565b005b341561020a57600080fd5b61021f600461021a903690610da7565b6109e1565b60405161022c91906110c3565b60405180910390f35b341561024057600080fd5b6102556004610250903690610e3f565b610a12565b005b61025f610a3b565b610267610a4f565b61026f610a4f565b610277610a4f565b61027f610a4f565b610287610a3b565b61028f610a3b565b610297610a4f565b61029f610a4f565b6102a7610a4f565b6102af610a3b565b6102b7610a4f565b6000806004805490506040518059106102cd5750595b908082528060200260200182016040525097506004805490506040518059106102f35750595b908082528060200260200182016040525096506004805490506040518059106103195750595b9080825280602002602001820160405250955060048054905060405180591061033f5750595b908082528060200260200182016040525094506004805490506040518059106103655750595b9080825280602002602001820160405250935060048054905060405180591061038b5750595b90808252806020026020018201604052509250600091505b6004805490508210156104b6576004828154811015156103bf57fe5b90600052602060002090600d02019050806002015488838151811015156103e257fe5b9060200190602002019060001916908160001916815250508060030154878381518110151561040d57fe5b90602001906020020181815250508060060154868381518110151561042e57fe5b906020019060200201818152505080600a0154858381518110151561044f57fe5b90602001906020020181815250508060050154838381518110151561047057fe5b906020019060200201818152505080600c0154848381518110151561049157fe5b90602001906020020190600019169081600019168152505081806001019250506103a3565b8787878786889d509d509d509d509d509d505050505050505050909192939495565b346004828154811015156104e857fe5b90600052602060002090600d02016006016000828254019250508190555050565b60026020528160005260406000208181548110151561052457fe5b9060005260206000209001600091509150505481565b610542610a4f565b61054a610a4f565b610552610a4f565b61055a610a4f565b6000806004805490506040518059106105705750595b908082528060200260200182016040525093506004805490506040518059106105965750595b90808252806020026020018201604052509250600091505b600480549050821015610629576004828154811015156105ca57fe5b90600052602060002090600d02019050806006015484838151811015156105ed57fe5b90602001906020020181815250508060050154838381518110151561060e57fe5b906020019060200201818152505081806001019250506105ae565b83839550955050505050915091565b6000806000806000925060009150600090505b60148160ff1610156106f15761010083029250848160ff1681518110151561066f57fe5b9060200101517f010000000000000000000000000000000000000000000000000000000000000090047f0100000000000000000000000000000000000000000000000000000000000000027f0100000000000000000000000000000000000000000000000000000000000000900491508183019250808060010191505061064b565b829350505050919050565b610704610a63565b600060016004805490500190508082600001818152505033826020019073ffffffffffffffffffffffffffffffffffffffff16908173ffffffffffffffffffffffffffffffffffffffff16815250508582604001906000191690816000191681525050848260600181815250506020604051908101604052806000815250826080018190525060008260a001818152505060008260c001818152505060008260e00190600019169081600019168152505082826101000190600019169081600019168152505087826101600181815250508682610140018181525050838261018001906000191690816000191681525050600260003373ffffffffffffffffffffffffffffffffffffffff1673ffffffffffffffffffffffffffffffffffffffff16815260200190815260200160002080548060010182816108469190610af7565b9160005260206000209001600083909190915055506004805480600101828161086f9190610b23565b91600052602060002090600d020160008490919091506000820151816000015560208201518160010160006101000a81548173ffffffffffffffffffffffffffffffffffffffff021916908373ffffffffffffffffffffffffffffffffffffffff1602179055506040820151816002019060001916905560608201518160030155608082015181600401908051906020019061090c929190610b55565b5060a0820151816005015560c0820151816006015560e082015181600701906000191690556101008201518160080190600019169055610120820151816009019060001916905561014082015181600a015561016082015181600b015561018082015181600c01906000191690555050505050505050505050565b6003602052816000526040600020818154811015156109a257fe5b9060005260206000209001600091509150505481565b60026004828154811015156109c957fe5b90600052602060002090600d02016005018190555050565b6001602052816000526040600020818154811015156109fc57fe5b9060005260206000209001600091509150505481565b6001600482815481101515610a2357fe5b90600052602060002090600d02016005018190555050565b602060405190810160405280600081525090565b602060405190810160405280600081525090565b6101a06040519081016040528060008152602001600073ffffffffffffffffffffffffffffffffffffffff1681526020016000801916815260200160008152602001610aad610bd5565b815260200160008152602001600081526020016000801916815260200160008019168152602001600080191681526020016000815260200160008152602001600080191681525090565b815481835581811511610b1e57818360005260206000209182019101610b1d9190610be9565b5b505050565b815481835581811511610b5057600d0281600d028360005260206000209182019101610b4f9190610c0e565b5b505050565b828054600181600116156101000203166002900490600052602060002090601f016020900481019282601f10610b9657805160ff1916838001178555610bc4565b82800160010185558215610bc4579182015b82811115610bc3578251825591602001919060010190610ba8565b5b509050610bd19190610be9565b5090565b602060405190810160405280600081525090565b610c0b91905b80821115610c07576000816000905550600101610bef565b5090565b90565b610cb991905b80821115610cb5576000808201600090556001820160006101000a81549073ffffffffffffffffffffffffffffffffffffffff021916905560028201600090556003820160009055600482016000610c6c9190610cbc565b60058201600090556006820160009055600782016000905560088201600090556009820160009055600a820160009055600b820160009055600c82016000905550600d01610c14565b5090565b90565b50805460018160011615610100020316600290046000825580601f10610ce25750610d01565b601f016020900490600052602060002090810190610d009190610be9565b5b50565b6000610d1082356111c7565b905092915050565b6000610d2482356111e7565b905092915050565b600082601f83011260008114610d4157610d46565b600080fd5b508135610d5a610d5582611114565b6110de565b91508082526020830160208301858383011160018114610d7957610d7e565b600080fd5b50610d8a8382846111fb565b50505092915050565b6000610d9f82356111f1565b905092915050565b60008060408385031260018114610dbd57610dc2565b600080fd5b506000610dd185828601610d04565b9250506020610de285828601610d93565b9150509250929050565b600060208284031260018114610e0157610e06565b600080fd5b50600082013567ffffffffffffffff811160018114610e2457610e29565b600080fd5b50610e3684828501610d2c565b91505092915050565b600060208284031260018114610e5457610e59565b600080fd5b506000610e6884828501610d93565b91505092915050565b60008060008060008060c08789031260018114610e8d57610e92565b600080fd5b506000610ea189828a01610d93565b9650506020610eb289828a01610d93565b9550506040610ec389828a01610d18565b9450506060610ed489828a01610d93565b9350506080610ee589828a01610d18565b92505060a0610ef689828a01610d18565b9150509295509295509295565b610f0c81611193565b82525050565b6000610f1d82611163565b808452602084019350610f2f83611149565b60005b82811015610f6157610f45868351610fc8565b610f4e82611179565b9150602086019550600181019050610f32565b50849250505092915050565b6000610f788261116e565b808452602084019350610f8a83611156565b60005b82811015610fbc57610fa0868351610fd7565b610fa982611186565b9150602086019550600181019050610f8d565b50849250505092915050565b610fd1816111b3565b82525050565b610fe0816111bd565b82525050565b6000602082019050610ffb6000830184610f03565b92915050565b600060c082019050818103600083015261101b8189610f12565b9050818103602083015261102f8188610f6d565b905081810360408301526110438187610f6d565b905081810360608301526110578186610f6d565b9050818103608083015261106b8185610f6d565b905081810360a083015261107f8184610f12565b9050979650505050505050565b600060408201905081810360008301526110a68185610f6d565b905081810360208301526110ba8184610f6d565b90509392505050565b60006020820190506110d86000830184610fd7565b92915050565b6000604051905081810181811067ffffffffffffffff8211176001811461110457611109565b600080fd5b508060405250919050565b600067ffffffffffffffff82116001811461112e57611133565b600080fd5b50601f19601f8301169050602081019050919050565b6000602082019050919050565b6000602082019050919050565b600081519050919050565b600081519050919050565b6000602082019050919050565b6000602082019050919050565b600073ffffffffffffffffffffffffffffffffffffffff82169050919050565b6000819050919050565b6000819050919050565b600073ffffffffffffffffffffffffffffffffffffffff82169050919050565b6000819050919050565b6000819050919050565b828183376000838301525050505600a265627a7a7230582018a6c137ba8e6b2d29275acde6940f9670753b3bdca027fe1a044e2b7891a20c6c6578706572696d656e74616cf50037",
  "source": "pragma solidity ^0.4.18;\npragma experimental ABIEncoderV2;\n\ncontract Reporter {\n\n    struct Stake{\n        uint id;\n        uint value;\n        uint opinion; //1=>in support of , 0 => against\n    }\n\n\n    mapping(uint => Stake[]) complaint_stakes;\n    struct Complaint {\n        uint id;\n        address admin; //adhaar card of person registering complaint.\n        bytes32 complaint;\n        uint contact_info;\n        // string address_info;\n        string proposed_solution;\n        // bytes32 documents;\n        uint status;//0-> pending/open 1-> in process 2->closed/resolved\n        uint upvotes;\n        bytes32 solved_by; //adhaar_card of person who solved it\n        bytes32 location;//In the form of longitude latitude\n        bytes32 date_of_crime;\n        uint visibility;//0 -> closed 1-> open\n        uint type_of_complaint;// 0-> criminal cases eg(Theft) 1->civil cases( Consumer court )2->enforcement( debt issue )\n        bytes32 crime_time;\n    }\n    //Mapping of address to array of complaint id;\n    mapping(address => uint[]) public solved_complaints; //solved by me\n    //Mapping of adhaar card to array of lodged solved_complaints\n    //To retreive complaints a person has lodged\n    mapping(address => uint[]) public lodged_complaints; // lodged by me\n    mapping(address => uint[]) public process_complaints; //under me\n\n\n\n    //Police officials list\n    // address[] police_list;\n    // police_list[0] = '0x870d3e9c4e7edce6436bc5c3d4194967155616ae';\n    // police_list[1] = '0x08eebb4fd9b3436baf4cadb9105b73acc015ee65';\n\n    //All complaints\n    Complaint[] all_complaints;\n\n     function bytesToAddress(bytes _address) public returns (address) {\n    uint160 m = 0;\n    uint160 b = 0;\n\n    for (uint8 i = 0; i < 20; i++) {\n      m *= 256;\n      b = uint160(_address[i]);\n      m += (b);\n    }\n\n    return address(m);\n  }\n\n  //address addr = bytesToAddress(\"0x5794ff959eb9c6a2afe82f8ed30e0973b40c8842\");\n\n    //Getter for all_complaints\n    function get_all_complaints() public returns (bytes32[],uint[], uint[], uint[],uint[], bytes32[]){\n        bytes32[] memory title = new bytes32[](all_complaints.length);\n        uint[] memory contact_info = new uint[](all_complaints.length);\n        uint[] memory upvotes = new uint[](all_complaints.length);\n        uint[] memory visibility = new uint[](all_complaints.length);\n        bytes32[] memory crime_time = new bytes32[](all_complaints.length);\n        // address[] memory admin = new address[](all_complaints.length);\n        uint[] memory status = new uint[](all_complaints.length);\n        for(uint i=0;i<all_complaints.length;i++){\n            Complaint storage c = all_complaints[i];\n            //id[i] = c.id;\n            title[i] = c.complaint;\n            contact_info[i] = c.contact_info;\n            upvotes[i] = c.upvotes;\n            visibility[i] = c.visibility;\n            status[i] = c.status;\n         //   location[i] = c.location;\n            crime_time[i] = c.crime_time;\n        }\n\n        return(title, contact_info, upvotes, visibility, status, crime_time);\n    }\n    \n// uint id,string documents,uint type_of_complaint, uint visibility,  bytes32 admin, string title, string contact_info, string address_info, uint256 time, string location\n    function register_complaint(uint type_of_complaint, uint visibility, bytes32 complaint, uint contact_info, bytes32 crime_time, bytes32 location) public payable{\n        Complaint memory newcomplaint;\n        uint id = all_complaints.length+1;\n        newcomplaint.id = id;\n        newcomplaint.admin = msg.sender;\n        newcomplaint.complaint = bytes32(complaint);\n        newcomplaint.contact_info = contact_info;\n        newcomplaint.proposed_solution = '';\n        newcomplaint.status = 0;\n        newcomplaint.upvotes = 0;\n        newcomplaint.solved_by = '';\n        // newcomplaint.time = time;\n        newcomplaint.location = bytes32(location);\n        newcomplaint.type_of_complaint = type_of_complaint;\n        newcomplaint.visibility = visibility;\n        newcomplaint.crime_time = crime_time;\n\n        //Add this complaint to array of lodged complaints by the adhaar number\n        lodged_complaints[msg.sender].push(id);\n        //Add this complaint to array of all complaints\n        all_complaints.push(newcomplaint);\n\n    }\n\n    function get_upvotes_status(uint id) public returns(uint[], uint[]){\n        uint[] memory upvotes = new uint[](all_complaints.length);\n        uint[] memory status = new uint[](all_complaints.length);\n        for(uint i=0;i<all_complaints.length;i++){\n            Complaint storage c = all_complaints[i];\n            upvotes[i] = c.upvotes;\n            status[i] = c.status;\n        }       \n        return (upvotes, status);\n    }\n\n    // function accept_complaint(address police, uint id) public{\n    //     process_complaints[police].push(id);Complaint memory newcomplaint;\n    //     all_complaints[id].status = 1;//in process\n    // }\n\n    function upvote(uint id) public payable{\n        all_complaints[id].upvotes += msg.value;\n    }\n\n    function accept_complaint(uint id) public{\n        all_complaints[id].status = 1;//pending\n    }\n    function close_complaint(uint id) public{\n        all_complaints[id].status = 2;\n        \n    }\n\n    // function returnTotalStakes(uint id) public {\n    //     uint256 totalStakes = 0;\n    //     for(uint i = 0 ; i < complaint_stakes[id].length ; i++){\n    //         totalStakes += complaint_stakes[id][i].value;\n    //     } \n    //     return totalStakes;\n    // }\n\n    // function proposed_solution(bytes32 proposed_solution,uint id) public{\n    //     solved_by = bytes32(msg.sender);\n    //     all_complaints[id].proposed_solution = proposed_solution;\n    //     all_complaints[id].status = 1;\n    // }\n\n    // function closeComplain(address admin,uint id,uint status) public{\n    //     all_complaints[id].status = status;\n    // }\n\n\n\n\n}",
  "sourcePath": "/home/tushalien/Desktop/testing/RepoEther/contracts/Reporter.sol",
  "compiler": {
    "name": "solc",
    "version": "0.4.19+commit.c4cbbb05.Emscripten.clang"
  },
  "schemaVersion": "2.0.0",
  "updatedAt": "2018-03-18T05:00:32.214Z"
}