{
  "contractName": "Reporter",
  "abi": [
    {
      "constant": false,
      "inputs": [
        {
          "name": "admin",
          "type": "bytes32"
        },
        {
          "name": "complaint",
          "type": "bytes32"
        },
        {
          "name": "contact_info",
          "type": "bytes32"
        },
        {
          "name": "tags",
          "type": "bytes32"
        },
        {
          "name": "documents",
          "type": "bytes32"
        },
        {
          "name": "location",
          "type": "bytes32"
        },
        {
          "name": "date_of_crime",
          "type": "bytes32"
        },
        {
          "name": "visibility",
          "type": "uint256"
        },
        {
          "name": "type_of_complaint",
          "type": "uint256"
        }
      ],
      "name": "registerComplaints",
      "outputs": [],
      "payable": true,
      "stateMutability": "payable",
      "type": "function"
    },
    {
      "constant": true,
      "inputs": [],
      "name": "getAllComplaints1",
      "outputs": [
        {
          "name": "",
          "type": "uint256[]"
        },
        {
          "name": "",
          "type": "bytes32[]"
        },
        {
          "name": "",
          "type": "bytes32[]"
        },
        {
          "name": "",
          "type": "bytes32[]"
        },
        {
          "name": "",
          "type": "bytes32[]"
        },
        {
          "name": "",
          "type": "bytes32[]"
        }
      ],
      "payable": false,
      "stateMutability": "view",
      "type": "function"
    },
    {
      "constant": true,
      "inputs": [],
      "name": "getAllComplaints2",
      "outputs": [
        {
          "name": "",
          "type": "bytes32[]"
        },
        {
          "name": "",
          "type": "bytes32[]"
        },
        {
          "name": "",
          "type": "uint256[]"
        },
        {
          "name": "",
          "type": "uint256[]"
        },
        {
          "name": "",
          "type": "bytes32[]"
        },
        {
          "name": "",
          "type": "uint256[]"
        }
      ],
      "payable": false,
      "stateMutability": "view",
      "type": "function"
    },
    {
      "constant": false,
      "inputs": [
        {
          "name": "police_station",
          "type": "bytes32"
        },
        {
          "name": "complaint_id",
          "type": "uint256"
        }
      ],
      "name": "acceptComplaint",
      "outputs": [],
      "payable": true,
      "stateMutability": "payable",
      "type": "function"
    },
    {
      "constant": false,
      "inputs": [
        {
          "name": "complaint_id",
          "type": "uint256"
        },
        {
          "name": "proposed_solution",
          "type": "bytes32"
        }
      ],
      "name": "proposeSolution",
      "outputs": [],
      "payable": true,
      "stateMutability": "payable",
      "type": "function"
    },
    {
      "constant": false,
      "inputs": [
        {
          "name": "complaint_id",
          "type": "uint256"
        },
        {
          "name": "police_station",
          "type": "bytes32"
        }
      ],
      "name": "acceptSolution",
      "outputs": [],
      "payable": true,
      "stateMutability": "payable",
      "type": "function"
    },
    {
      "constant": false,
      "inputs": [
        {
          "name": "complaint_id",
          "type": "uint256"
        },
        {
          "name": "user_address",
          "type": "bytes32"
        },
        {
          "name": "stake",
          "type": "uint256"
        },
        {
          "name": "opinion",
          "type": "uint256"
        }
      ],
      "name": "addStake",
      "outputs": [],
      "payable": true,
      "stateMutability": "payable",
      "type": "function"
    },
    {
      "constant": false,
      "inputs": [
        {
          "name": "complaint_id",
          "type": "uint256"
        }
      ],
      "name": "returnStakeValue",
      "outputs": [
        {
          "name": "",
          "type": "uint256"
        }
      ],
      "payable": false,
      "stateMutability": "nonpayable",
      "type": "function"
    },
    {
      "constant": false,
      "inputs": [
        {
          "name": "complaint_id",
          "type": "uint256"
        },
        {
          "name": "result",
          "type": "uint256"
        }
      ],
      "name": "distributeFunds",
      "outputs": [],
      "payable": true,
      "stateMutability": "payable",
      "type": "function"
    }
  ],
  "bytecode": "0x6060604052341561000f57600080fd5b6111b68061001e6000396000f300606060405260043610610099576000357c0100000000000000000000000000000000000000000000000000000000900463ffffffff16806331d598191461009e578063320a13da14610270578063482769f3146102955780634d7d8300146102b6578063535aadc3146104885780635f6f796b146104bf57806363a6ec0b146104e4578063866ac10e1461051b578063c3202a0d14610597575b600080fd5b34156100a957600080fd5b6100b16105bc565b6040518080602001806020018060200180602001806020018060200187810387528d818151815260200191508051906020019060200280838360005b838110156101085780820151818401526020810190506100ed565b5050505090500187810386528c818151815260200191508051906020019060200280838360005b8381101561014a57808201518184015260208101905061012f565b5050505090500187810385528b818151815260200191508051906020019060200280838360005b8381101561018c578082015181840152602081019050610171565b5050505090500187810384528a818151815260200191508051906020019060200280838360005b838110156101ce5780820151818401526020810190506101b3565b50505050905001878103835289818151815260200191508051906020019060200280838360005b838110156102105780820151818401526020810190506101f5565b50505050905001878103825288818151815260200191508051906020019060200280838360005b83811015610252578082015181840152602081019050610237565b505050509050019c5050505050505050505050505060405180910390f35b610293600480803590602001909190803560001916906020019091905050610847565b005b6102b460048080359060200190919080359060200190919050506108be565b005b34156102c157600080fd5b6102c9610ac6565b6040518080602001806020018060200180602001806020018060200187810387528d818151815260200191508051906020019060200280838360005b83811015610320578082015181840152602081019050610305565b5050505090500187810386528c818151815260200191508051906020019060200280838360005b83811015610362578082015181840152602081019050610347565b5050505090500187810385528b818151815260200191508051906020019060200280838360005b838110156103a4578082015181840152602081019050610389565b5050505090500187810384528a818151815260200191508051906020019060200280838360005b838110156103e65780820151818401526020810190506103cb565b50505050905001878103835289818151815260200191508051906020019060200280838360005b8381101561042857808201518184015260208101905061040d565b50505050905001878103825288818151815260200191508051906020019060200280838360005b8381101561046a57808201518184015260208101905061044f565b505050509050019c5050505050505050505050505060405180910390f35b6104bd600480803590602001909190803560001916906020019091908035906020019091908035906020019091905050610d65565b005b6104e2600480803560001916906020019091908035906020019091905050610dfe565b005b34156104ef57600080fd5b6105056004808035906020019091905050610e68565b6040518082815260200191505060405180910390f35b610595600480803560001916906020019091908035600019169060200190919080356000191690602001909190803560001916906020019091908035600019169060200190919080356000191690602001909190803560001916906020019091908035906020019091908035906020019091905050610ee0565b005b6105ba600480803590602001909190803560001916906020019091905050610fd5565b005b6105c4611002565b6105cc611002565b6105d4611016565b6105dc611016565b6105e4611002565b6105ec611016565b6105f4611002565b6105fc611002565b610604611016565b61060c611016565b610614611002565b61061c611016565b6000806001805490506040518059106106325750595b908082528060200260200182016040525097506001805490506040518059106106585750595b9080825280602002602001820160405250965060018054905060405180591061067e5750595b908082528060200260200182016040525095506001805490506040518059106106a45750595b908082528060200260200182016040525094506001805490506040518059106106ca5750595b908082528060200260200182016040525093506001805490506040518059106106f05750595b90808252806020026020018201604052509250600091505b6001805490508210156108255760018281548110151561072457fe5b90600052602060002090600d020190508060090154888381518110151561074757fe5b90602001906020020190600019169081600019168152505080600a0154878381518110151561077257fe5b90602001906020020190600019169081600019168152505080600b0154868381518110151561079d57fe5b906020019060200201818152505080600c015485838151811015156107be57fe5b9060200190602002018181525050806005015484838151811015156107df57fe5b9060200190602002019060001916908160001916815250508060070154838381518110151561080a57fe5b90602001906020020181815250508180600101925050610708565b8787878787879d509d509d509d509d509d505050505050505050909192939495565b600260018381548110151561085857fe5b90600052602060002090600d020160070181905550600260008260001916600019168152602001908152602001600020805480600101828161089a919061102a565b9160005260206000209001600084909190915055506108ba8260016108be565b5050565b6000806000806000806000955060009450600093505b60036000898152602001908152602001600020805490508410156109785786600360008a81526020019081526020016000208581548110151561091357fe5b90600052602060002090600302016002015414151561096b57600360008981526020019081526020016000208481548110151561094c57fe5b9060005260206000209060030201600101548601955084806001019550505b83806001019450506108d4565b84600360008a815260200190815260200160002080549050018681151561099b57fe5b049250600093505b6003600089815260200190815260200160002080549050841015610abc5786600360008a8152602001908152602001600020858154811015156109e257fe5b906000526020600020906003020160020154141515610a0057610aaf565b82600360008a815260200190815260200160002085815481101515610a2157fe5b9060005260206000209060030201600101540191506003600089815260200190815260200160002084815481101515610a5657fe5b9060005260206000209060030201600001546001900490508073ffffffffffffffffffffffffffffffffffffffff166108fc839081150290604051600060405180830381858888f193505050501515610aae57600080fd5b5b83806001019450506109a3565b5050505050505050565b610ace611016565b610ad6611002565b610ade611002565b610ae6611002565b610aee611002565b610af6611002565b610afe611016565b610b06611002565b610b0e611002565b610b16611002565b610b1e611002565b610b26611002565b600080600180549050604051805910610b3c5750595b90808252806020026020018201604052509750600180549050604051805910610b625750595b90808252806020026020018201604052509650600180549050604051805910610b885750595b90808252806020026020018201604052509550600180549050604051805910610bae5750595b90808252806020026020018201604052509450600180549050604051805910610bd45750595b90808252806020026020018201604052509350600180549050604051805910610bfa5750595b90808252806020026020018201604052509250600091505b600180549050821015610d4357600182815481101515610c2e57fe5b90600052602060002090600d0201905080600001548883815181101515610c5157fe5b906020019060200201818152505080600101548783815181101515610c7257fe5b90602001906020020190600019169081600019168152505080600201548683815181101515610c9d57fe5b90602001906020020190600019169081600019168152505080600301548583815181101515610cc857fe5b90602001906020020190600019169081600019168152505080600401548483815181101515610cf357fe5b90602001906020020190600019169081600019168152505080600601548383815181101515610d1e57fe5b9060200190602002019060001916908160001916815250508180600101925050610c12565b8787878787879d509d509d509d509d509d505050505050505050909192939495565b610d6d611056565b83816000019060001916908160001916815250508281602001818152505081816040018181525050600360008681526020019081526020016000208054806001018281610dba919061107b565b916000526020600020906003020160008390919091506000820151816000019060001916905560208201518160010155604082015181600201555050505050505050565b60008083600019166000191681526020019081526020016000208054806001018281610e2a919061102a565b91600052602060002090016000839091909150555060018082815481101515610e4f57fe5b90600052602060002090600d0201600701819055505050565b6000806000809150600090505b6003600085815260200190815260200160002080549050811015610ed6576003600085815260200190815260200160002081815481101515610eb357fe5b906000526020600020906003020160010154820191508080600101915050610e75565b8192505050919050565b610ee86110ad565b60018080549050018160000181815250508981602001906000191690816000191681525050888160400190600019169081600019168152505087816060019060001916908160001916815250508681608001906000191690816000191681525050858160c0019060001916908160001916815250508481610120019060001916908160001916815250508381610140019060001916908160001916815250508281610160018181525050818161018001818152505060008160a00190600019169081600019168152505060008160e001818152505060008161010001818152505050505050505050505050565b80600183815481101515610fe557fe5b90600052602060002090600d020160050181600019169055505050565b602060405190810160405280600081525090565b602060405190810160405280600081525090565b81548183558181151161105157818360005260206000209182019101611050919061112e565b5b505050565b6060604051908101604052806000801916815260200160008152602001600081525090565b8154818355818115116110a8576003028160030283600052602060002091820191016110a79190611153565b5b505050565b6101a060405190810160405280600081526020016000801916815260200160008019168152602001600080191681526020016000801916815260200160008019168152602001600080191681526020016000815260200160008152602001600080191681526020016000801916815260200160008152602001600081525090565b61115091905b8082111561114c576000816000905550600101611134565b5090565b90565b61118791905b80821115611183576000808201600090556001820160009055600282016000905550600301611159565b5090565b905600a165627a7a723058201eaf6451002076a12109f84386eee2adba013a38824ce1abe537a661502a27c10029",
  "source": "pragma solidity ^0.4.18;\n\ncontract Reporter {\n\n\tstruct Stake {\n\t\tbytes32 user_address;\n\t\tuint stake;\n\t\tuint opinion; //1->genuine FIR, 0->fake FIR\n\t}\n\n    struct Complaint {\n        uint id;\n        bytes32 admin; //uportId of person registering complaint.\n        bytes32 complaint;\n        bytes32 contact_info;\n        bytes32 tags;\n        bytes32 proposed_solution;\n        bytes32 documents;\n        uint status;//0-> pending/open 1-> in process 2->closed/resolved\n        uint upvotes;\n        bytes32 location;//In the form of longitude latitude\n        bytes32 date_of_crime;\n        uint visibility;//0 -> closed 1-> open\n        uint type_of_complaint;// 0-> criminal cases eg(Theft) 1->civil cases( Consumer court )2->enforcement( debt issue )\n        // uint256 time;\n    }\n\n\n\t//Mapping of uportid to an integer array of complaint ids\n\tmapping(bytes32 => uint[]) my_complaints;\n\n\t//Array of all_complaints\n\tComplaint[] all_complaints;\n\n\t//Mapping of uportid to and integer array of complaint ids\n\tmapping(bytes32 => uint[]) my_solved_complaints;\n\n\tmapping(uint => Stake[]) stakes_on_complaint;\n\n\tfunction registerComplaints(bytes32 admin, bytes32 complaint, bytes32 contact_info, bytes32 tags, bytes32 documents, bytes32 location, bytes32 date_of_crime, uint visibility, uint type_of_complaint ) public payable {\n\t\tComplaint memory newcomplaint;\n\t\tnewcomplaint.id = all_complaints.length + 1;\n        newcomplaint.admin = admin;\n        newcomplaint.complaint = complaint;\n        newcomplaint.contact_info = contact_info;\n        newcomplaint.tags = tags;\n        newcomplaint.documents = documents;\n        newcomplaint.location = location;\n        newcomplaint.date_of_crime = date_of_crime;\n        newcomplaint.visibility = visibility;\n        newcomplaint.type_of_complaint = type_of_complaint;\n        newcomplaint.proposed_solution = '';\n        newcomplaint.status = 0;//pending;\n        newcomplaint.upvotes = 0;\n\t} \n\n    function getAllComplaints1() public constant returns (uint[], bytes32[], bytes32[],bytes32[],bytes32[],bytes32[]){\n        \n        uint[] memory id = new uint[](all_complaints.length);\n        bytes32[] memory admin = new bytes32[](all_complaints.length);\n        bytes32[] memory complaint = new bytes32[](all_complaints.length);\n        bytes32[] memory contact_info = new bytes32[](all_complaints.length);\n        bytes32[] memory tags = new bytes32[](all_complaints.length);\n        bytes32[] memory documents = new bytes32[](all_complaints.length);\n\n        for(uint i=0;i<all_complaints.length;i++){\n            Complaint storage c = all_complaints[i];\n            id[i] = c.id;\n            admin[i] = c.admin;\n            complaint[i] = c.complaint;\n            contact_info[i] = c.contact_info;\n            tags[i] = c.tags;\n            documents[i] = c.documents;\n\n        }\n\n        return(id, admin, complaint, contact_info, tags, documents);\n    }\n    function getAllComplaints2() public constant returns (bytes32[],bytes32[], uint[], uint[], bytes32[], uint[]){\n        \n        bytes32[] memory location = new bytes32[](all_complaints.length);\n        bytes32[] memory date_of_crime = new bytes32[](all_complaints.length);\n        uint[] memory visibility = new uint[](all_complaints.length);\n        uint[] memory type_of_complaint = new uint[](all_complaints.length);\n        bytes32[] memory proposed_solution = new bytes32[](all_complaints.length);\n        uint[] memory status = new uint[](all_complaints.length);\n\n        for(uint i=0;i<all_complaints.length;i++){\n            Complaint storage c = all_complaints[i];\n\n            location[i] = c.location;\n            date_of_crime[i] = c.date_of_crime;\n            visibility[i] = c.visibility;\n            type_of_complaint[i] = c.type_of_complaint;\n            proposed_solution[i] = c.proposed_solution;\n            status[i] = c.status;\n        }\n\n        return(location, date_of_crime, visibility, type_of_complaint, proposed_solution, status);\n    }\n\tfunction acceptComplaint(bytes32 police_station, uint complaint_id) public payable{\n\t\tmy_complaints[police_station].push(complaint_id);\n\t\tall_complaints[complaint_id].status = 1; //in progress\n\t}\n\n\tfunction proposeSolution(uint complaint_id, bytes32 proposed_solution) public payable{\n\t\tall_complaints[complaint_id].proposed_solution = proposed_solution;\n\t}\n\n\tfunction acceptSolution(uint complaint_id, bytes32 police_station) public  payable{\n\t\tall_complaints[complaint_id].status = 2;// closed;\n\t\tmy_solved_complaints[police_station].push(complaint_id);\n\t\tdistributeFunds(complaint_id, 1);//it was a genuine problem\n\t}\n\n\tfunction addStake(uint complaint_id, bytes32 user_address, uint stake, uint opinion) public payable {\n\t\tStake memory newstake;\n\t\tnewstake.user_address = user_address;\n\t\tnewstake.stake = stake;\n\t\tnewstake.opinion = opinion;\n\t\tstakes_on_complaint[complaint_id].push(newstake);\n\t}\n\n\tfunction returnStakeValue(uint complaint_id) public returns(uint){\n\t\tuint total=0;\n\t\tfor(uint i=0;i< stakes_on_complaint[complaint_id].length;i++){\n\t\t\ttotal += stakes_on_complaint[complaint_id][i].stake;\n\t\t}\n\t\treturn total;\n\t}\n\n\tfunction distributeFunds(uint complaint_id, uint result) public payable {\n\t\tuint total_return_amount=0;\n\t\tuint wrong_opinion_count=0;\n\t\tfor(uint i=0;i<stakes_on_complaint[complaint_id].length;i++){\n\t\t\tif(stakes_on_complaint[complaint_id][i].opinion != result){\n\t\t\t\ttotal_return_amount += stakes_on_complaint[complaint_id][i].stake;\n\t\t\t\twrong_opinion_count++;\n\t\t\t}\n\t\t}\n\t\tuint extra_return = total_return_amount/(stakes_on_complaint[complaint_id].length+wrong_opinion_count);\n\t\tfor(i=0;i<stakes_on_complaint[complaint_id].length;i++){\n\t\t\tif(stakes_on_complaint[complaint_id][i].opinion != result)\n\t\t\t\tcontinue;\n\t\t\tuint amount = stakes_on_complaint[complaint_id][i].stake + extra_return;\n\t\t\taddress to_address = address(stakes_on_complaint[complaint_id][i].user_address);\n\t\t\tto_address.transfer(amount);\t\t\t\n\t\t}\n\t}\n}",
  "sourcePath": "/home/tushalien/Desktop/HINT/RepoEther/contracts/Reporter.sol",
  "compiler": {
    "name": "solc",
    "version": "0.4.19+commit.c4cbbb05.Emscripten.clang"
  },
  "schemaVersion": "2.0.0",
  "updatedAt": "2018-03-17T02:00:35.333Z"
}