{
  "contractName": "Reporter",
  "abi": [
    {
      "constant": false,
      "inputs": [],
      "name": "get_all_complaints",
      "outputs": [
        {
          "name": "",
          "type": "bytes32[]"
        },
        {
          "name": "",
          "type": "uint256[]"
        },
        {
          "name": "",
          "type": "uint256[]"
        },
        {
          "name": "",
          "type": "uint256[]"
        },
        {
          "name": "",
          "type": "uint256[]"
        },
        {
          "name": "",
          "type": "bytes32[]"
        }
      ],
      "payable": false,
      "stateMutability": "nonpayable",
      "type": "function"
    },
    {
      "constant": true,
      "inputs": [
        {
          "name": "",
          "type": "address"
        },
        {
          "name": "",
          "type": "uint256"
        }
      ],
      "name": "lodged_complaints",
      "outputs": [
        {
          "name": "",
          "type": "uint256"
        }
      ],
      "payable": false,
      "stateMutability": "view",
      "type": "function"
    },
    {
      "constant": false,
      "inputs": [
        {
          "name": "id",
          "type": "uint256"
        },
        {
          "name": "actual_opinion",
          "type": "uint256"
        }
      ],
      "name": "process_refund",
      "outputs": [
        {
          "name": "",
          "type": "uint256"
        }
      ],
      "payable": false,
      "stateMutability": "nonpayable",
      "type": "function"
    },
    {
      "constant": false,
      "inputs": [
        {
          "name": "id",
          "type": "uint256"
        },
        {
          "name": "opinion",
          "type": "uint256"
        }
      ],
      "name": "downvote",
      "outputs": [],
      "payable": true,
      "stateMutability": "payable",
      "type": "function"
    },
    {
      "constant": false,
      "inputs": [
        {
          "name": "id",
          "type": "uint256"
        }
      ],
      "name": "get_upvotes_status",
      "outputs": [
        {
          "name": "",
          "type": "uint256[]"
        },
        {
          "name": "",
          "type": "uint256[]"
        }
      ],
      "payable": false,
      "stateMutability": "nonpayable",
      "type": "function"
    },
    {
      "constant": false,
      "inputs": [
        {
          "name": "_address",
          "type": "bytes"
        }
      ],
      "name": "bytesToAddress",
      "outputs": [
        {
          "name": "",
          "type": "address"
        }
      ],
      "payable": false,
      "stateMutability": "nonpayable",
      "type": "function"
    },
    {
      "constant": false,
      "inputs": [
        {
          "name": "type_of_complaint",
          "type": "uint256"
        },
        {
          "name": "visibility",
          "type": "uint256"
        },
        {
          "name": "complaint",
          "type": "bytes32"
        },
        {
          "name": "contact_info",
          "type": "uint256"
        },
        {
          "name": "crime_time",
          "type": "bytes32"
        },
        {
          "name": "location",
          "type": "bytes32"
        }
      ],
      "name": "register_complaint",
      "outputs": [],
      "payable": true,
      "stateMutability": "payable",
      "type": "function"
    },
    {
      "constant": false,
      "inputs": [
        {
          "name": "id",
          "type": "uint256"
        },
        {
          "name": "opinion",
          "type": "uint256"
        }
      ],
      "name": "upvote",
      "outputs": [],
      "payable": true,
      "stateMutability": "payable",
      "type": "function"
    },
    {
      "constant": true,
      "inputs": [
        {
          "name": "",
          "type": "address"
        },
        {
          "name": "",
          "type": "uint256"
        }
      ],
      "name": "process_complaints",
      "outputs": [
        {
          "name": "",
          "type": "uint256"
        }
      ],
      "payable": false,
      "stateMutability": "view",
      "type": "function"
    },
    {
      "constant": false,
      "inputs": [
        {
          "name": "id",
          "type": "uint256"
        }
      ],
      "name": "close_complaint",
      "outputs": [],
      "payable": false,
      "stateMutability": "nonpayable",
      "type": "function"
    },
    {
      "constant": true,
      "inputs": [
        {
          "name": "",
          "type": "address"
        },
        {
          "name": "",
          "type": "uint256"
        }
      ],
      "name": "solved_complaints",
      "outputs": [
        {
          "name": "",
          "type": "uint256"
        }
      ],
      "payable": false,
      "stateMutability": "view",
      "type": "function"
    },
    {
      "constant": false,
      "inputs": [
        {
          "name": "id",
          "type": "uint256"
        }
      ],
      "name": "returnTotalStakes",
      "outputs": [
        {
          "name": "",
          "type": "uint256"
        }
      ],
      "payable": false,
      "stateMutability": "nonpayable",
      "type": "function"
    },
    {
      "constant": false,
      "inputs": [
        {
          "name": "id",
          "type": "uint256"
        }
      ],
      "name": "return_votes",
      "outputs": [
        {
          "name": "",
          "type": "address[]"
        }
      ],
      "payable": false,
      "stateMutability": "nonpayable",
      "type": "function"
    },
    {
      "constant": false,
      "inputs": [
        {
          "name": "id",
          "type": "uint256"
        }
      ],
      "name": "accept_complaint",
      "outputs": [],
      "payable": false,
      "stateMutability": "nonpayable",
      "type": "function"
    }
  ],
  "bytecode": "0x6060604052341561000f57600080fd5b61186d8061001e6000396000f3006060604052600436106100cf576000357c0100000000000000000000000000000000000000000000000000000000900463ffffffff16806272e94e146100d45780630205dd1214610102578063050098841461015857806306a7fefe14610198578063242b4381146101b957806342526e4e146101f15780635e42080e146102625780635e7ce9f8146102b357806373407453146102d45780638c14abf51461032a578063a3b9931c1461034d578063a68e27f3146103a3578063c39ec570146103da578063def7107414610411575b600080fd5b34156100df57600080fd5b6100e7610434565b6040516100f9969594939291906116b3565b60405180910390f35b341561010d57600080fd5b610142600480803573ffffffffffffffffffffffffffffffffffffffff169060200190919080359060200190919050506106b5565b60405161014f9190611775565b60405180910390f35b341561016357600080fd5b61018260048080359060200190919080359060200190919050506106e6565b60405161018f9190611775565b60405180910390f35b6101b7600480803590602001909190803590602001909190505061075a565b005b34156101c457600080fd5b6101da6004808035906020019091905050610879565b6040516101e892919061173e565b60405180910390f35b34156101fc57600080fd5b61024c600480803590602001908201803590602001908080601f01602080910402602001604051908101604052809392919081815260200183838082843782019150505050505091905050610977565b6040516102599190611676565b60405180910390f35b6102b16004808035906020019091908035906020019091908035600019169060200190919080359060200190919080356000191690602001909190803560001916906020019091905050610a3b565b005b6102d26004808035906020019091908035906020019091905050610cc6565b005b34156102df57600080fd5b610314600480803573ffffffffffffffffffffffffffffffffffffffff16906020019091908035906020019091905050610de5565b6040516103219190611775565b60405180910390f35b341561033557600080fd5b61034b6004808035906020019091905050610e16565b005b341561035857600080fd5b61038d600480803573ffffffffffffffffffffffffffffffffffffffff16906020019091908035906020019091905050610e3f565b60405161039a9190611775565b60405180910390f35b34156103ae57600080fd5b6103c46004808035906020019091905050610e70565b6040516103d19190611775565b60405180910390f35b34156103e557600080fd5b6103fb6004808035906020019091905050610ee6565b6040516104089190611691565b60405180910390f35b341561041c57600080fd5b6104326004808035906020019091905050611146565b005b61043c61116f565b610444611183565b61044c611183565b610454611183565b61045c611183565b61046461116f565b61046c61116f565b610474611183565b61047c611183565b610484611183565b61048c61116f565b610494611183565b6000806004805490506040518059106104aa5750595b908082528060200260200182016040525097506004805490506040518059106104d05750595b908082528060200260200182016040525096506004805490506040518059106104f65750595b9080825280602002602001820160405250955060048054905060405180591061051c5750595b908082528060200260200182016040525094506004805490506040518059106105425750595b908082528060200260200182016040525093506004805490506040518059106105685750595b90808252806020026020018201604052509250600091505b6004805490508210156106935760048281548110151561059c57fe5b90600052602060002090600d02019050806002015488838151811015156105bf57fe5b906020019060200201906000191690816000191681525050806003015487838151811015156105ea57fe5b90602001906020020181815250508060060154868381518110151561060b57fe5b906020019060200201818152505080600a0154858381518110151561062c57fe5b90602001906020020181815250508060050154838381518110151561064d57fe5b906020019060200201818152505080600c0154848381518110151561066e57fe5b9060200190602002019060001916908160001916815250508180600101925050610580565b8787878786889d509d509d509d509d509d505050505050505050909192939495565b6002602052816000526040600020818154811015156106d057fe5b9060005260206000209001600091509150505481565b600080600080670de0b6b3a76400009150735794ff959eb9c6a2afe82f8ed30e0973b40c884290503373ffffffffffffffffffffffffffffffffffffffff166108fc839081150290604051600060405180830381858888f19350505050151561074e57600080fd5b81935050505092915050565b610762611197565b3460048481548110151561077257fe5b90600052602060002090600d02016006016000828254019250508190555033816000019073ffffffffffffffffffffffffffffffffffffffff16908173ffffffffffffffffffffffffffffffffffffffff16815250503481602001818152505081816040018181525050600080848152602001908152602001600020805480600101828161080091906111cf565b9160005260206000209060030201600083909190915060008201518160000160006101000a81548173ffffffffffffffffffffffffffffffffffffffff021916908373ffffffffffffffffffffffffffffffffffffffff1602179055506020820151816001015560408201518160020155505050505050565b610881611183565b610889611183565b610891611183565b610899611183565b6000806004805490506040518059106108af5750595b908082528060200260200182016040525093506004805490506040518059106108d55750595b90808252806020026020018201604052509250600091505b6004805490508210156109685760048281548110151561090957fe5b90600052602060002090600d020190508060060154848381518110151561092c57fe5b90602001906020020181815250508060050154838381518110151561094d57fe5b906020019060200201818152505081806001019250506108ed565b83839550955050505050915091565b6000806000806000925060009150600090505b60148160ff161015610a305761010083029250848160ff168151811015156109ae57fe5b9060200101517f010000000000000000000000000000000000000000000000000000000000000090047f0100000000000000000000000000000000000000000000000000000000000000027f0100000000000000000000000000000000000000000000000000000000000000900491508183019250808060010191505061098a565b829350505050919050565b610a43611201565b600060016004805490500190508082600001818152505033826020019073ffffffffffffffffffffffffffffffffffffffff16908173ffffffffffffffffffffffffffffffffffffffff16815250508582604001906000191690816000191681525050848260600181815250506020604051908101604052806000815250826080018190525060008260a001818152505060008260c001818152505060008260e00190600019169081600019168152505082826101000190600019169081600019168152505087826101600181815250508682610140018181525050838261018001906000191690816000191681525050600260003373ffffffffffffffffffffffffffffffffffffffff1673ffffffffffffffffffffffffffffffffffffffff1681526020019081526020016000208054806001018281610b859190611295565b91600052602060002090016000839091909150555060048054806001018281610bae91906112c1565b91600052602060002090600d020160008490919091506000820151816000015560208201518160010160006101000a81548173ffffffffffffffffffffffffffffffffffffffff021916908373ffffffffffffffffffffffffffffffffffffffff16021790555060408201518160020190600019169055606082015181600301556080820151816004019080519060200190610c4b9291906112f3565b5060a0820151816005015560c0820151816006015560e082015181600701906000191690556101008201518160080190600019169055610120820151816009019060001916905561014082015181600a015561016082015181600b015561018082015181600c01906000191690555050505050505050505050565b610cce611197565b34600484815481101515610cde57fe5b90600052602060002090600d02016006016000828254019250508190555033816000019073ffffffffffffffffffffffffffffffffffffffff16908173ffffffffffffffffffffffffffffffffffffffff168152505034816020018181525050818160400181815250506000808481526020019081526020016000208054806001018281610d6c91906111cf565b9160005260206000209060030201600083909190915060008201518160000160006101000a81548173ffffffffffffffffffffffffffffffffffffffff021916908373ffffffffffffffffffffffffffffffffffffffff1602179055506020820151816001015560408201518160020155505050505050565b600360205281600052604060002081815481101515610e0057fe5b9060005260206000209001600091509150505481565b6002600482815481101515610e2757fe5b90600052602060002090600d02016005018190555050565b600160205281600052604060002081815481101515610e5a57fe5b9060005260206000209001600091509150505481565b6000806000809150600090505b60008085815260200190815260200160002080549050811015610edc5760008085815260200190815260200160002081815481101515610eb957fe5b906000526020600020906003020160010154820191508080600101915050610e7d565b8192505050919050565b610eee611373565b60008060008085815260200190815260200160002080549050841415610f9b5781805480602002602001604051908101604052809291908181526020018280548015610f8f57602002820191906000526020600020905b8160009054906101000a900473ffffffffffffffffffffffffffffffffffffffff1673ffffffffffffffffffffffffffffffffffffffff1681526020019060010190808311610f45575b5050505050925061113f565b600090505b600080858152602001908152602001600020805490508110156110b657600160008086815260200190815260200160002082815481101515610fde57fe5b90600052602060002090600302016002015414156110a9578180548060010182816110099190611387565b916000526020600020900160008060008881526020019081526020016000208481548110151561103557fe5b906000526020600020906003020160000160009054906101000a900473ffffffffffffffffffffffffffffffffffffffff16909190916101000a81548173ffffffffffffffffffffffffffffffffffffffff021916908373ffffffffffffffffffffffffffffffffffffffff160217905550505b8080600101915050610fa0565b8180548060200260200160405190810160405280929190818152602001828054801561113757602002820191906000526020600020905b8160009054906101000a900473ffffffffffffffffffffffffffffffffffffffff1673ffffffffffffffffffffffffffffffffffffffff16815260200190600101908083116110ed575b505050505092505b5050919050565b600160048281548110151561115757fe5b90600052602060002090600d02016005018190555050565b602060405190810160405280600081525090565b602060405190810160405280600081525090565b606060405190810160405280600073ffffffffffffffffffffffffffffffffffffffff16815260200160008152602001600081525090565b8154818355818115116111fc576003028160030283600052602060002091820191016111fb91906113b3565b5b505050565b6101a06040519081016040528060008152602001600073ffffffffffffffffffffffffffffffffffffffff168152602001600080191681526020016000815260200161124b611409565b815260200160008152602001600081526020016000801916815260200160008019168152602001600080191681526020016000815260200160008152602001600080191681525090565b8154818355818115116112bc578183600052602060002091820191016112bb919061141d565b5b505050565b8154818355818115116112ee57600d0281600d0283600052602060002091820191016112ed9190611442565b5b505050565b828054600181600116156101000203166002900490600052602060002090601f016020900481019282601f1061133457805160ff1916838001178555611362565b82800160010185558215611362579182015b82811115611361578251825591602001919060010190611346565b5b50905061136f919061141d565b5090565b602060405190810160405280600081525090565b8154818355818115116113ae578183600052602060002091820191016113ad919061141d565b5b505050565b61140691905b8082111561140257600080820160006101000a81549073ffffffffffffffffffffffffffffffffffffffff021916905560018201600090556002820160009055506003016113b9565b5090565b90565b602060405190810160405280600081525090565b61143f91905b8082111561143b576000816000905550600101611423565b5090565b90565b6114ed91905b808211156114e9576000808201600090556001820160006101000a81549073ffffffffffffffffffffffffffffffffffffffff0219169055600282016000905560038201600090556004820160006114a091906114f0565b60058201600090556006820160009055600782016000905560088201600090556009820160009055600a820160009055600b820160009055600c82016000905550600d01611448565b5090565b90565b50805460018160011615610100020316600290046000825580601f106115165750611535565b601f016020900490600052602060002090810190611534919061141d565b5b50565b611541816117ff565b82525050565b6000611552826117b7565b80845260208401935061156483611790565b60005b828110156115965761157a868351611538565b611583826117d8565b9150602086019550600181019050611567565b50849250505092915050565b60006115ad826117c2565b8084526020840193506115bf8361179d565b60005b828110156115f1576115d5868351611658565b6115de826117e5565b91506020860195506001810190506115c2565b50849250505092915050565b6000611608826117cd565b80845260208401935061161a836117aa565b60005b8281101561164c57611630868351611667565b611639826117f2565b915060208601955060018101905061161d565b50849250505092915050565b6116618161181f565b82525050565b61167081611829565b82525050565b600060208201905061168b6000830184611538565b92915050565b600060208201905081810360008301526116ab8184611547565b905092915050565b600060c08201905081810360008301526116cd81896115a2565b905081810360208301526116e181886115fd565b905081810360408301526116f581876115fd565b9050818103606083015261170981866115fd565b9050818103608083015261171d81856115fd565b905081810360a083015261173181846115a2565b9050979650505050505050565b6000604082019050818103600083015261175881856115fd565b9050818103602083015261176c81846115fd565b90509392505050565b600060208201905061178a6000830184611667565b92915050565b6000602082019050919050565b6000602082019050919050565b6000602082019050919050565b600081519050919050565b600081519050919050565b600081519050919050565b6000602082019050919050565b6000602082019050919050565b6000602082019050919050565b600073ffffffffffffffffffffffffffffffffffffffff82169050919050565b6000819050919050565b60008190509190505600a265627a7a7230582091b291e512b951ef7d53151924d67886247d30ea892f6ca0d85f45e6374c169d6c6578706572696d656e74616cf50037",
  "source": "pragma solidity ^0.4.18;\npragma experimental ABIEncoderV2;\n\ncontract Reporter {\n\n    struct Stake{\n        address user;\n        uint value;\n        uint opinion; //1=>in support of , 0 => against\n    }\n\n\n    mapping(uint => Stake[]) complaint_stakes;\n\n\n    struct Complaint {\n        uint id;\n        address admin; //adhaar card of person registering complaint.\n        bytes32 complaint;\n        uint contact_info;\n        // string address_info;\n        string proposed_solution;\n        // bytes32 documents;\n        uint status;//0-> pending/open 1-> in process 2->closed/resolved\n        uint upvotes;\n        bytes32 solved_by; //adhaar_card of person who solved it\n        bytes32 location;//In the form of longitude latitude\n        bytes32 date_of_crime;\n        uint visibility;//0 -> closed 1-> open\n        uint type_of_complaint;// 0-> criminal cases eg(Theft) 1->civil cases( Consumer court )2->enforcement( debt issue )\n        bytes32 crime_time;\n    }\n    //Mapping of address to array of complaint id;\n    mapping(address => uint[]) public solved_complaints; //solved by me\n    //Mapping of adhaar card to array of lodged solved_complaints\n    //To retreive complaints a person has lodged\n    mapping(address => uint[]) public lodged_complaints; // lodged by me\n    mapping(address => uint[]) public process_complaints; //under me\n\n\n    //All complaints\n    Complaint[] all_complaints;\n\n    function bytesToAddress(bytes _address) public returns (address) {\n    uint160 m = 0;\n    uint160 b = 0;\n\n    for (uint8 i = 0; i < 20; i++) {\n      m *= 256;\n      b = uint160(_address[i]);\n      m += (b);\n    }\n\n    return address(m);\n  }\n\n  //address addr = bytesToAddress(\"0x5794ff959eb9c6a2afe82f8ed30e0973b40c8842\");\n\n    //Getter for all_complaints\n    function get_all_complaints() public returns (bytes32[],uint[], uint[], uint[],uint[], bytes32[]){\n        bytes32[] memory title = new bytes32[](all_complaints.length);\n        uint[] memory contact_info = new uint[](all_complaints.length);\n        uint[] memory upvotes = new uint[](all_complaints.length);\n        uint[] memory visibility = new uint[](all_complaints.length);\n        bytes32[] memory crime_time = new bytes32[](all_complaints.length);\n        // address[] memory admin = new address[](all_complaints.length);\n        uint[] memory status = new uint[](all_complaints.length);\n        for(uint i=0;i<all_complaints.length;i++){\n            Complaint storage c = all_complaints[i];\n            //id[i] = c.id;\n            title[i] = c.complaint;\n            contact_info[i] = c.contact_info;\n            upvotes[i] = c.upvotes;\n            visibility[i] = c.visibility;\n            status[i] = c.status;\n         //   location[i] = c.location;\n            crime_time[i] = c.crime_time;\n        }\n\n        return(title, contact_info, upvotes, visibility, status, crime_time);\n    }\n    \n// uint id,string documents,uint type_of_complaint, uint visibility,  bytes32 admin, string title, string contact_info, string address_info, uint256 time, string location\n    function register_complaint(uint type_of_complaint, uint visibility, bytes32 complaint, uint contact_info, bytes32 crime_time, bytes32 location) public payable{\n        Complaint memory newcomplaint;\n        uint id = all_complaints.length + 1;\n        newcomplaint.id = id;\n        newcomplaint.admin = msg.sender;\n        newcomplaint.complaint = bytes32(complaint);\n        newcomplaint.contact_info = contact_info;\n        newcomplaint.proposed_solution = '';\n        newcomplaint.status = 0;\n        newcomplaint.upvotes = 0;\n        newcomplaint.solved_by = '';\n        // newcomplaint.time = time;\n        newcomplaint.location = bytes32(location);\n        newcomplaint.type_of_complaint = type_of_complaint;\n        newcomplaint.visibility = visibility;\n        newcomplaint.crime_time = crime_time;\n\n        //Add this complaint to array of lodged complaints by the adhaar number\n        lodged_complaints[msg.sender].push(id);\n        //Add this complaint to array of all complaints\n        all_complaints.push(newcomplaint);\n\n    }\n\n    function get_upvotes_status(uint id) public returns(uint[], uint[]){\n        uint[] memory upvotes = new uint[](all_complaints.length);\n        uint[] memory status = new uint[](all_complaints.length);\n        for(uint i=0;i<all_complaints.length;i++){\n            Complaint storage c = all_complaints[i];\n            upvotes[i] = c.upvotes;\n            status[i] = c.status;\n        }       \n        return (upvotes, status);\n    }\n\n    // function accept_complaint(address police, uint id) public{\n    //     process_complaints[police].push(id);Complaint memory newcomplaint;\n    //     all_complaints[id].status = 1;//in process\n    // }\n\n    function upvote(uint id, uint opinion) public payable{\n        all_complaints[id].upvotes += msg.value;\n        //add to complaint_stakes and totalStakes;\n        Stake memory stake;\n        stake.user = msg.sender;\n        stake.value = msg.value;\n        stake.opinion = opinion;\n        complaint_stakes[id].push(stake);\n    }\n\n    function downvote(uint id, uint opinion) public payable{\n        all_complaints[id].upvotes += msg.value;\n        Stake memory stake;\n        stake.user = msg.sender;\n        stake.value = msg.value;\n        stake.opinion = opinion;\n        complaint_stakes[id].push(stake);        \n    }\n\n    function accept_complaint(uint id) public{\n        all_complaints[id].status = 1;//pending\n    }\n    function close_complaint(uint id) public{\n        all_complaints[id].status = 2;\n        \n    }\n\n    function returnTotalStakes(uint id) public returns(uint) {\n        uint256 totalStakes = 0;\n        for(uint i=0;i<complaint_stakes[id].length;i++) {\n            totalStakes += complaint_stakes[id][i].value;\n        }\n        return totalStakes;\n    }\n\n    function return_votes(uint id) public returns(address[]){\n     address [] all;\n     if(id == complaint_stakes[id].length)\n        return all;\n     for(uint i=0;i<complaint_stakes[id].length;i++){\n        if(complaint_stakes[id][i].opinion == 1)\n            all.push(complaint_stakes[id][i].user);\n     }   \n     return all;\n    }\n\n    function process_refund(uint id, uint actual_opinion) public returns(uint ) {\n        address [] correct_guess;\n        uint256 amt = 1000000000000000000;\n        address addr = 0x5794fF959EB9C6a2aFE82F8Ed30e0973B40c8842;\n        if(!msg.sender.send(amt)){\n            throw;\n        }\n        return amt;\n        // uint extra_refund=0;\n        // uint right_guess_count=0;\n        // for(uint i=0;i<complaint_stakes[id].length;i++){\n        //     if(complaint_stakes[id][i].opinion == 1){\n        //         correct_guess.push(complaint_stakes[id][i].user);\n        //         right_guess_count++;\n        //         extra_refund = 1;\n        //         if(complaint_stakes[id][i].user.send(extra_refund)){\n        //             extra_refund = 3;\n        //             return extra_refund;\n        //         }\n        //     }\n        //     else{\n        //         extra_refund += complaint_stakes[id][i].value;\n        //     }\n        // }\n        // for(i=0;i<correct_guess.length;i++){\n        //     correct_guess[i].send(extra_refund/right_guess_count);\n        // }\n    }\n\n    // function proposed_solution(bytes32 proposed_solution,uint id) public{\n    //     solved_by = bytes32(msg.sender);\n    //     all_complaints[id].proposed_solution = proposed_solution;\n    //     all_complaints[id].status = 1;\n    // }\n\n    // function closeComplain(address admin,uint id,uint status) public{\n    //     all_complaints[id].status = status;\n    // }\n\n\n\n\n}",
  "sourcePath": "/home/worm/Desktop/HINT/HINT_NEW/RepoEther/contracts/Reporter.sol",
  "compiler": {
    "name": "solc",
    "version": "0.4.18+commit.9cf6e910.Emscripten.clang"
  },
  "schemaVersion": "1.0.1",
  "updatedAt": "2018-03-20T04:52:52.325Z"
}